:020000040800F2
:10000000FF7F00205D8C0208AD860008AF860008E7
:10001000B1860008B3860008B5860008000000001D
:10002000000000000000000000000000F13900089E
:10003000B786000800000000913B00089585000885
:10004000AD8C0208AD8C0208AD8C0208AD8C0208A4
:10005000AD8C0208AD8C0208457400086D74000870
:1000600095740008BD740008E5740008C96D0008A7
:10007000FD6D0008316E0008656E0008996E00087D
:10008000CD6E0008016F0008AD8C0208AD8C02082F
:10009000B9860008AD8C0208AD8C02080D75000809
:1000A000AD8C020829810008AD8C0208AD8C0208D5
:1000B0005981000889810008B9810008AD8C0208C7
:1000C000AD8C0208AD8C0208AD8C0208AD8C020824
:1000D000AD8C020839830008A5830008118400084C
:1000E000C5750008AD8C0208AD8C0208AD8C020805
:1000F000AD8C0208AD8C0208AD8C0208AD8C0208F4
:10010000AD8C0208AD8C0208E9810008AD8C0208B4
:10011000AD8C0208AD8C02081982000849820008E3
:10012000356F0008696F00089D6F0008D16F0008E7
:1001400010B5054C237833B9044B13B10448AFF311
:1001500000800123237010BDA404002000000000D3
:100160006091020808B5034B1BB103490348AFF384
:10017000008008BD00000000A80400206091020873
:1001800053B94AB9002908BF00281CBF4FF0FF31FE
:100190004FF0FF3000F074B9ADF1080C6DE904CEFA
:1001A00000F006F8DDF804E0DDE9022304B0704752
:1001B0002DE9F047089D04468E46002B4DD18A421A
:1001C000944669D9B2FA82F252B101FA02F3C2F14D
:1001D000200120FA01F10CFA02FC41EA030E9440DE
:1001E0004FEA1C48210CBEFBF8F61FFA8CF708FBFF
:1001F00016E341EA034306FB07F199420AD91CEBD7
:10020000030306F1FF3080F01F81994240F21C8108
:10021000023E63445B1AA4B2B3FBF8F008FB103350
:1002200044EA034400FB07F7A7420AD91CEB040485
:1002300000F1FF3380F00A81A74240F20781644455
:10024000023840EA0640E41B00261DB1D4400023DA
:10025000C5E900433146BDE8F0878B4209D9002D3E
:1002600000F0EF800026C5E9000130463146BDE8C8
:10027000F087B3FA83F6002E4AD18B4202D3824232
:1002800000F2F980841A61EB030301209E46002DE1
:10029000E0D0C5E9004EDDE702B9FFDEB2FA82F236
:1002A000002A40F09280A1EB0C014FEA1C471FFA94
:1002B0008CFE0126200CB1FBF7F307FB131140EA7B
:1002C00001410EFB03F0884208D91CEB010103F148
:1002D000FF3802D2884200F2CB804346091AA4B20A
:1002E000B1FBF7F007FB101144EA01440EFB00FEDE
:1002F000A64508D91CEB040400F1FF3102D2A64543
:1003000000F2BB800846A4EB0E0440EA03409CE7E1
:10031000C6F12007B34022FA07FC4CEA030C20FA8E
:1003200007F401FA06F31C43F9404FEA1C4900FAAE
:1003300006F3B1FBF9F8200C1FFA8CFE09FB18112B
:1003400040EA014108FB0EF0884202FA06F20BD99E
:100350001CEB010108F1FF3A80F08880884240F2EE
:100360008580A8F102086144091AA4B2B1FBF9F032
:1003700009FB101144EA014100FB0EFE8E4508D92D
:100380001CEB010100F1FF346CD28E456AD90238B2
:10039000614440EA0840A0FB0294A1EB0E01A14297
:1003A000C846A64656D353D05DB1B3EB080261EB05
:1003B0000E0101FA07F722FA06F3F1401F43C5E9DF
:1003C000007100263146BDE8F087C2F12003D84015
:1003D0000CFA02FC21FA03F3914001434FEA1C4757
:1003E0001FFA8CFEB3FBF7F007FB10360B0C43EA49
:1003F000064300FB0EF69E4204FA02F408D91CEBF9
:10040000030300F1FF382FD29E422DD902386344F6
:100410009B1B89B2B3FBF7F607FB163341EA034196
:1004200006FB0EF38B4208D91CEB010106F1FF38E5
:1004300016D28B4214D9023E6144C91A46EA0046DC
:1004400038E72E46284605E70646E3E61846F8E66E
:100450004B45A9D2B9EB020864EB0C0E0138A3E7B7
:100460004646EAE7204694E74046D1E7D0467BE798
:10047000023B614432E7304609E76444023842E710
:10048000704700BF844641EA000313F003036DD1B7
:10049000403A41D351F8043B40F8043B51F8043B47
:1004A00040F8043B51F8043B40F8043B51F8043B4E
:1004B00040F8043B51F8043B40F8043B51F8043B3E
:1004C00040F8043B51F8043B40F8043B51F8043B2E
:1004D00040F8043B51F8043B40F8043B51F8043B1E
:1004E00040F8043B51F8043B40F8043B51F8043B0E
:1004F00040F8043B51F8043B40F8043B51F8043BFE
:1005000040F8043B51F8043B40F8043B51F8043BED
:1005100040F8043B403ABDD2303211D351F8043B8D
:1005200040F8043B51F8043B40F8043B51F8043BCD
:1005300040F8043B51F8043B40F8043B103AEDD23C
:100540000C3205D351F8043B40F8043B043AF9D28D
:10055000043208D0D2071CBF11F8013B00F8013B60
:1005600001D30B8803806046704700BF082A13D36D
:100570008B078DD010F003038AD0C3F10403D21A85
:10058000DB071CBF11F8013B00F8013B80D331F8B9
:10059000023B20F8023B7BE7043AD9D3013A11F839
:1005A000013B00F8013BF9D20B7803704B784370A4
:1005B0008B788370604670470000000000000000E8
:1005C000A2EB0300704700BF02780B78012A28BF16
:1005D0009A42F5D16DE9044540EA0104CDE902678C
:1005E0006FF0000C4FEA447212B380EA010414F079
:1005F000070F6AD100F0070420F0070004F003059C
:1006000021F007014FEAC505F0E8042314F0040FB8
:10061000F1E804670CFA05F462EA040266EA0406EB
:100620000AD063EA0403624667EA0407664603E009
:10063000F0E80423F1E8046782FA4CF582EA060444
:10064000A4FA8CF46CBB83FA4CF583EA0705A5FA8F
:100650008CF595B950E9022351E9026782FA4CF50D
:1006600082EA0604A4FA8CF483FA4CF583EA0705BF
:10067000A5FA8CF52543DBD09CB92DBAB5FA85F4E3
:1006800024F0070427FA04F1DDE9026723FA04F3F2
:1006900003F0FF0001F0FF01FDE80445A0EB0100BD
:1006A000704724BAB4FA84F424F0070426FA04F15B
:1006B000DDE9026722FA04F202F0FF0001F0FF0117
:1006C000FDE80445A0EB0100704714F0030F3CD196
:1006D00010F0030428D150F8082B51F8083B82FA97
:1006E0004CF582EA0305A5FA8CF55DB950F8042CA7
:1006F00051F8043C82FA4CF582EA0305A5FA8CF520
:10070000002DE8D02DBAB5FA85F424F0070423FAB9
:1007100004F122FA04F202F0FF0001F0FF01FDE80B
:100720000445A0EB010070474FEAC40420F0030029
:1007300050F8082B21F0030151F8083B0CFA04F49F
:1007400062EA040263EA0403C9E710F003041AD062
:10075000A1EB040120F00300E40750F8042B06D0BD
:100760000FD28B785FFAA2F4E41A06D12BB1CB78C2
:100770005FFAB2F4E41A00D11BB920465DF8104BC1
:10078000704701F1040150F8042BCC0721F003015C
:1007900051F8043B48D824D222F07F4482FA4CF529
:1007A00094EA1325A5FA8CF50AD165B951F8043BF2
:1007B00084EA0204B4EB036F0ED150F8042BEBE78C
:1007C0004FEA132355E035F07F454DD10878FDE819
:1007D0000445C0F1000070474FEA126203F0FF03C6
:1007E00047E002EA1C4482FA4CF594EA1345A5FA64
:1007F0008CF50AD165B951F8043B84EA0204B4EBE4
:10080000034F0CD150F8042BEBE74FEA134330E0D1
:1008100015EA1C4528D10B884FEA124229E04FEA1D
:10082000124203EA1C4324E002F0FF0482FA4CF572
:1008300094EA1365A5FA8CF50AD165B951F8043B21
:1008400084EA0204B4EB032F09D150F8042BEBE740
:100850004FEA13630DE015F0FF0F05D10B684FEA67
:10086000122223F07F4304E04FF00000FDE804452E
:10087000704712BA1BBA82FA4CF482EA0304A4FA53
:100880008CF5B5FA85F402FA04F203FA04F34FEAA0
:100890001260FDE80445A0EB136070470000000003
:1008A0000000000000000000000000000000000048
:1008B0000000000000000000000000000000000038
:1008C00090F800F06DE9024520F007016FF0000C90
:1008D00010F0070491F820F040F049804FF0000438
:1008E0006FF00700D1E9002391F840F000F1080013
:1008F00082FA4CF2A4FA8CF283FA4CF3A2FA8CF34B
:100900004BBBD1E9022382FA4CF200F10800A4FAB1
:100910008CF283FA4CF3A2FA8CF3E3B9D1E9042305
:1009200082FA4CF200F10800A4FA8CF283FA4CF33C
:10093000A2FA8CF37BB9D1E9062301F1200182FAF6
:100940004CF200F10800A4FA8CF283FA4CF3A2FAFC
:100950008CF3002BC6D0002A04BF04301A4612BA0A
:10096000B2FA82F2FDE8024500EBD2007047D1E90D
:10097000002304F00305C4F100004FEAC50514F09C
:10098000040F91F840F00CFA05F562EA05021CBF6D
:1009900063EA050362464FF00004A9E730B587B06B
:1009A0000446082305930022049203924FF4007337
:1009B0000293019200924FF482730E4907F0A2F95C
:1009C0000D4D0C2303224821284604F0B9FE0121D5
:1009D000204607F074FA10340323009310231A46BC
:1009E0002946204606F062FE204606F06CFE07B05F
:1009F00030BD00BF003001400008014038B504465A
:100A000000F11005284606F062FE0521204607F099
:100A1000EFF9FF21204607F0EBF90446284606F0DF
:100A200052FE204638BD38B5044600F11005284670
:100A300006F04DFE0621204607F0DAF9284606F0BA
:100A400042FE38BD2DE9F04105460F4614461E46CC
:100A500000F11008404606F03AFE0321284607F050
:100A6000C7F9C4F30741284607F0C2F9C4F30721C8
:100A7000284607F0BDF9E1B2284607F0B9F900248D
:100A800006E0FF21284607F0B3F938550134A4B237
:100A9000B442F6D9404606F016FEBDE8F08110B526
:100AA00004462046FFF7AAFF10F0010FF9D110BD50
:100AB0002DE9F04105460F4614461E46FFF7B3FFE9
:100AC00005F11008404606F002FE0221284607F014
:100AD0008FF9C4F30741284607F08AF9C4F30721C8
:100AE000284607F085F9E1B2284607F081F900248D
:100AF00005E0395D284607F07BF90134A4B2B44221
:100B0000F7D3404606F0DFFD2846FFF7C8FFBDE8F3
:100B1000F0812DE9F04180460F4616461C46D5B2BD
:100B2000C5F58075ADB29D4203D31D4601E04FF47B
:100B300080752B46324639464046FFF7B9FFAC4236
:100B400008D02F442E44641BA4B2B4F5807FEED8A5
:100B50002546EEE7BDE8F08170B504460D03FFF7CA
:100B600062FF2046FFF79BFF04F11006304606F0B7
:100B7000AEFD2021204607F03BF9C5F30741204692
:100B800007F036F9290A01F0F001204607F030F9A4
:100B90000021204607F02CF9304606F094FD20464F
:100BA000FFF77DFF70BD00002DE9F84F82460E462D
:100BB00091461F464FEA1238C2F30B05C5F5805423
:100BC000A4B29C4204D31C4602E04FF4805400259A
:100BD0004FEA083B4FF480535A461E495046FFF7F0
:100BE00031FF00239C4207D9EA181A49525CFF2AB8
:100BF00002D101339BB2F5E79C4212D823464A4604
:100C000031465046FFF785FFA74220D008F1010882
:100C10002644A1443F1BBFB2B7F5805FD5D83C4600
:100C2000D5E741465046FFF797FF00239C4206D97F
:100C30005919F05C074A885401339BB2F6E74FF428
:100C400080535A4603495046FFF763FFDCE7BDE88F
:100C5000F88F00BFC004002070B582B004460C4D70
:100C600003260096482302222946183006F01EFD6E
:100C7000009648230422294604F10C0006F016FDD4
:100C80000122044904F1240005F0FCFC02B070BD0F
:100C9000000C01400024014090ED000A7047000064
:100CA00010B52DED028B04468388C2889B1A07EE8F
:100CB000903AF8EEE77A9FED0A7A87EE278A243099
:100CC00005F0F4FDE388C31A07EE903AF8EEE77AF0
:100CD00067EE887AC4ED007ABDEC028B10BD00BFD0
:100CE0000000C84230B583B0044600F1180393E811
:100CF000030007F081FCE37C43BBDFED377AB4EE01
:100D0000E70AF1EE10FA18D594F82030013384F890
:100D100020306D46284607F059FC04F1180395E889
:100D2000030083E803000123E374237D4BB9002112
:100D3000204606F045FA03B030BD002384F8203089
:100D4000E7E70121204606F03BFAF4E7DFED227ADF
:100D5000B4EEE70AF1EE10FA17D594F8203001331B
:100D6000DBB284F82030012B0AD0022B10D1237C77
:100D700073B1002323740122627484F8203007E0E9
:100D80002374002384F8203002E0002384F820300C
:100D9000F6EE007AB4EEE70AF1EE10FA04DD012374
:100DA000A374002384F820306D46284607F00EFC1B
:100DB00004F1180395E8030083E803000023E374BB
:100DC000237D23B90121204606F0FAF9B3E700217B
:100DD000204606F0F5F9AEE79A99993E30B587B00E
:100DE0000446084611462375D3B9012303930293A1
:100DF00000230193009304230246204606F09FFA45
:100E00000D4A2146204606F011F904AD284607F0A8
:100E1000DDFB183495E8030084E8030007B030BD1B
:100E200002230393002302930193009304230246B9
:100E3000204606F084FAE3E7E50C000810B5044606
:100E400000F1180393E8030007F0D6FBDFED067A04
:100E5000B4EEE70AF1EE10FA01DC002010BD207CB0
:100E600000232374FAE700BFCDCC4C3E10B50446F6
:100E700000F1180393E8030007F0BEFBDFED067AEC
:100E8000B4EEE70AF1EE10FA01D4002010BD607C48
:100E900000236374FAE700BFCDCC4C3E0346807C50
:100EA00000229A747047000038B504460C4D0B229E
:100EB0002946103005F0E6FB0A22294604F13000ED
:100EC00005F0E0FB0F22294604F1500005F0DAFBA3
:100ED0000E22294604F1700005F0D4FB38BD00BF96
:100EE0000024014080ED020A704730B587B0044607
:100EF00000F11005284605F0D9FC07EE900AF8EE3F
:100F0000E77A94ED2C7AF4EEC77AF1EE10FA49DD27
:100F1000284605F0CBFC07EE900A94ED2C7AF8EE0B
:100F2000E77A77EEC77AD4ED246A76EEC76A87EE61
:100F3000A67AD4ED027A67EE277ACDED027A04F133
:100F40003005284605F0B2FC07EE900AF8EEE77A85
:100F500094ED2D7AF4EEC77AF1EE10FA4ADD2846C8
:100F600005F0A4FC07EE900A94ED2D7AF8EEE77AEE
:100F700077EEC77AD4ED256A76EEC76A87EEA67A51
:100F8000D4ED027A67EE277ACDED037A02AB93E8CF
:100F9000030006AB03E903009DED040ADDED050A3D
:100FA00007B030BD284605F081FC07EE900AF8EE48
:100FB000E77A94ED2C7AF4EEC77AF1EE10FABED807
:100FC000284605F073FC07EE900A94ED2C7AF8EEB3
:100FD000E77A77EEC77AF1EE677AD4ED266A76EE95
:100FE000C76A87EEA67AD4ED027A67EE277ACDED4E
:100FF000027AA4E7284605F059FC07EE900AF8EEBD
:10100000E77A94ED2D7AF4EEC77AF1EE10FABDD8B6
:10101000284605F04BFC07EE900A94ED2D7AF8EE89
:10102000E77A77EEC77AF1EE677AD4ED276A76EE43
:10103000C76A87EEA67AD4ED027A67EE277ACDEDFD
:10104000037AA3E730B587B0044600F1500528467F
:1010500005F02CFC07EE900AF8EEE77A94ED2E7A74
:10106000F4EEC77AF1EE10FA49DD284605F01EFCD1
:1010700007EE900A94ED2E7AF8EEE77A77EEC77ACB
:10108000D4ED286A76EEC76A87EEA67AD4ED027AA6
:1010900067EE277ACDED027A04F17005284605F057
:1010A00005FC07EE900AF8EEE77A94ED2F7AF4EE5D
:1010B000C77AF1EE10FA4ADD284605F0F7FB07EE95
:1010C000900A94ED2F7AF8EEE77A77EEC77AD4EDAE
:1010D000256A76EEC76A87EEA67AD4ED027A67EEC5
:1010E000277ACDED037A02AB93E8030006AB03E960
:1010F00003009DED040ADDED050A07B030BD28466A
:1011000005F0D4FB07EE900AF8EEE77A94ED2E7A1C
:10111000F4EEC77AF1EE10FABED8284605F0C6FB09
:1011200007EE900A94ED2E7AF8EEE77A77EEC77A1A
:10113000F1EE677AD4ED2A6A76EEC76A87EEA67A70
:10114000D4ED027A67EE277ACDED027AA4E728463D
:1011500005F0ACFB07EE900AF8EEE77A94ED2F7AF3
:10116000F4EEC77AF1EE10FABDD8284605F09EFBE2
:1011700007EE900A94ED2F7AF8EEE77A77EEC77AC9
:10118000F1EE677AD4ED2B6A76EEC76A87EEA67A1F
:10119000D4ED027A67EE277ACDED037AA3E700005B
:1011A00038B52DED028B04460023C0F8B030C0F8EE
:1011B000B430C0F8B830C0F8BC30002543E004F1CA
:1011C000100005F073FB07EE100AB8EEC77A9FED2A
:1011D000208AC7EE086AD4ED2C7A77EEA67AC4EDA1
:1011E0002C7A04F1300005F061FB07EE100AB8EE2E
:1011F000C77AC7EE086AD4ED2D7A77EEA67AC4EDE9
:101200002D7A04F1500005F051FB07EE100AB8EEFC
:10121000C77AC7EE086AD4ED2E7A77EEA67AC4EDC7
:101220002E7A04F1700005F041FB07EE100AB8EECB
:10123000C77AC7EE086AD4ED2F7A77EEA67AC4EDA6
:101240002F7A0135EDB2312DB9D9BDEC028B38BD05
:101250000000484230B52DED028B83B00546037B7C
:1012600023B900230093019300243BE00023037380
:101270000022C0F89020C0F894204FF08B43C0F8B3
:101280009830C0F89C30C0F8A020C0F8A420C0F866
:10129000A830C0F8AC30FFF783FFE2E705F110009B
:1012A00005F004FB07EE100AB8EEC77A9FED4E8AF0
:1012B000C7EE086ADDED007A77EEA67ACDED007A0A
:1012C00005F1300005F0F2FA07EE100AB8EEC77A21
:1012D000C7EE086ADDED017A77EEA67ACDED017AE8
:1012E0000134E4B2312CD9D99DED007AD5ED247AC0
:1012F000B4EEE77AF1EE10FA01DD85ED247ADDED4A
:10130000017AD5ED256AF4EEE67AF1EE10FA01DD08
:10131000C5ED257AD5ED266AB4EEE67AF1EE10FA3F
:1013200001D585ED267A95ED277AF4EEC77AF1EEB0
:1013300010FA01D5C5ED277A00230093019300240C
:1013400023E005F1500005F0B1FA07EE100AB8EEFF
:10135000C77A9FED258AC7EE086ADDED007A77EE41
:10136000A67ACDED007A05F1700005F09FFA07EE40
:10137000100AB8EEC77AC7EE086ADDED017A77EE9B
:10138000A67ACDED017A0134E4B2312CD9D99DEDA4
:10139000007AD5ED287AB4EEE77AF1EE10FA01DDA5
:1013A00085ED287ADDED017AD5ED296AF4EEE67A4D
:1013B000F1EE10FA01DDC5ED297AD5ED2A6AB4EE19
:1013C000E67AF1EE10FA01D585ED2A7A95ED2B7AC1
:1013D000F4EEC77AF1EE10FA01D5C5ED2B7A03B021
:1013E000BDEC028B30BD00BF000048420173704766
:1013F0002DE9F04389B004464FF01008CDF8148071
:101400000022049203924FF4007702970192009217
:101410004FF482732F4906F075FC0121204606F037
:101420004EFD04F12005DFF8B090032600964346F8
:101430004FF480524946284606F038F9284606F00F
:1014400046F904F11405009643464FF400624946FC
:10145000284606F02BF9284606F035F93A4604F1FD
:10146000680104F1480007F009F83A4604F51A71DA
:1014700004F1540007F002F8642007F0F7F8202385
:101480008DF81C307D238DF81D30284606F01FF99D
:10149000022306AA07A9204606F0C2FC284606F049
:1014A00012F927238DF81C307F238DF81D30284634
:1014B00006F00DF9022306AA07A9204606F0B0FCA3
:1014C000284606F000F9304607F0D0F809B0BDE82C
:1014D000F08300BF003800400010014070B590B0AC
:1014E0000446203006F0F3F807238DF8203000235F
:1014F0008DF8213004F11405284606F0E8F802239F
:101500006A4608A9204606F08BFC284606F0DBF860
:101510009DF8016027238DF82030FF238DF82130BE
:10152000284606F0D4F802236A4608A9204606F0A9
:1015300077FC284606F0C7F816F0100F39D116F0E0
:10154000200F53D094F9883401335BB284F8883487
:101550000A2B05DD0A2384F88834012384F88934B2
:1015600016F00E0F4AD0E2238DF8203000268DF8B9
:101570002160284606F0ABF802236A4608A92046F7
:1015800006F04EFC284606F09EF8E1238DF8203048
:101590008DF82160284606F09AF802236A4608A9C9
:1015A000204606F03DFC284606F08DF884F88A6453
:1015B0001CE0E1238DF8203000238DF821302846EF
:1015C00006F085F802236A4608A9204606F028FCA2
:1015D000284606F078F8022384F88A3494F988348F
:1015E000013B5BB284F88834002B01DB10B070BD86
:1015F000002384F8883484F88934F7E760238DF871
:10160000203000238DF82130284606F060F80223B0
:101610006A4608A9204606F003FC284606F053F85F
:101620009DF8013084F8B834284606F050F861215E
:10163000204606F0DDFB94F8B8346A4608A9204637
:1016400006F0EEFB284606F03EF89DF800300F2B22
:1016500033D0F02B35D02BB3E2238DF82030002689
:101660008DF82160284606F032F802236A4608A960
:10167000204606F0D5FB284606F025F8E1238DF834
:1016800020308DF82160284606F021F802236A46B2
:1016900008A9204606F0C4FB284606F014F884F892
:1016A0008A64A3E794F8B824013A92B20DF10101DB
:1016B00004F1480006F0E8FECEE7012384F88E34FA
:1016C000CAE7012384F891349DF8013084F89234FC
:1016D000C2E700002DE9F0418AB00446FFF788FE1A
:1016E00004F138070126039602960025019500951E
:1016F00004236D4A4FF48061384605F020FE6B4AA2
:101700002146384605F092FC04F110070495039534
:101710001023029301950523009341F2931340F2A5
:101720008F126349384606F007FC624A2146384664
:1017300006F0A2FD23238DF8203003238DF82130FD
:1017400004F11405284605F0C2FF022306AA08A9E1
:10175000204606F065FB284605F0B5FF30238DF8DE
:10176000203004F1630894F8612041460DF1210016
:1017700027F0F4FA284605F0AAFF94F861303344C4
:1017800006AA08A9204606F04BFB284605F09BFF59
:101790002A238DF82030D4F86330CDF8213094F826
:1017A00067308DF82530284605F091FF94F86030B9
:1017B000334406AA08A9204606F032FB284605F065
:1017C00082FF24238DF820301A238DF821302846FB
:1017D00005F07DFF022306AA08A9204606F020FB9B
:1017E000284605F070FF3D238DF8203006238DF844
:1017F0002130284605F06BFF022306AA08A92046DF
:1018000006F00EFB284605F05EFF3C238DF82030E5
:101810008DF82160284605F05AFF022306AA08A980
:10182000204606F0FDFA284605F04DFF25238DF8E9
:10183000203094F862308DF82130284605F047FFBB
:10184000022306AA08A9204606F0EAFA284605F06F
:101850003AFF26238DF8203007238DF821302846C3
:1018600005F035FF022306AA08A9204606F0D8FA9B
:10187000284605F028FF20238DF820300E238DF810
:101880002130284605F023FF022306AA08A9204696
:1018900006F0C6FA284605F016FF3146384606F02F
:1018A00033FC0AB0BDE8F08100100140DD140008EF
:1018B000000C004045190008F0B591B0044690F8BE
:1018C0008A340BB1022B3BD104F12006304605F0DF
:1018D000FEFEE1238DF8203000278DF8217004F101
:1018E0001405284605F0F3FE02236A4608A920469F
:1018F00006F096FA284605F0E6FE8DF820701F22C5
:101900000DF1210104F1540006F0EFFD84F8B90453
:10191000284605F0DCFEA021204606F069FA94F87E
:10192000B93401336A4608A9204606F079FA2846F8
:1019300005F0C9FE304605F0C6FE012384F88A345E
:1019400011B0F0BD08B590F88B3403B108BDFFF7B6
:10195000B3FFFBE738B5054680F88C14012380F807
:101960008B34002495F88B34012B08D10A2003F026
:1019700049F9631CDBB2142C0BD81C46F2E795F82E
:101980008C2495F862309A4201D0002002E00120B8
:1019900000E0002038BD034690F88B24022A02D0D4
:1019A00090F8900410B142B100207047022283F8F1
:1019B0008B24012283F89024704783F8902401201F
:1019C00070472DE9F04186B004460D46174690F861
:1019D0008A340BB1022B22D104F12008404605F0D5
:1019E00076FEE1238DF80C3000238DF80D3004F1E4
:1019F0001406304605F06BFE02236A4603A9204612
:101A000006F00EFA304605F05EFE0F2D0AD0F02DDE
:101A10001FD0012384F88A34404605F054FE06B0F6
:101A2000BDE8F0810F238DF80C303B788DF80D3038
:101A3000304605F04CFEA021204606F0D9F90223DD
:101A40006A4603A9204606F0EBF9304605F03BFE56
:101A5000DFE7F0238DF80C30052239460DF10D003B
:101A600027F07CF9304605F032FEA021204606F032
:101A7000BFF906236A4603A9204606F0D1F930468D
:101A800005F021FEC5E72DE9F04184B0044690F849
:101A90008B34012B04D0022B5BD004B0BDE8F08165
:101AA000002380F88D3417E025238DF8083094F852
:101AB00062308DF80930284605F009FE02236A4697
:101AC00002A9204606F0ACF9284605F0FCFD94F882
:101AD0008D34013384F88D3494F88D2494F88F3448
:101AE0009A4232D204F28C4632460F212046FFF74A
:101AF00068FF0A2003F086F825238DF8083094F853
:101B00008C348DF8093004F11405284605F0DFFD0A
:101B100002236A4602A9204606F082F9284605F00B
:101B2000D2FD32460F212046FFF74BFF1E2003F067
:101B300069F894F88A34002BB6D194F88E34002BCF
:101B4000B2D094F88C3484F86230002384F88B345B
:101B5000A3E790F88A34012B9FD030238DF808300A
:101B600090F8612000F293410DF1090027F0F6F89A
:101B700004F11408404605F0AAFD94F861300133E1
:101B80006A4602A9204606F04BF9404605F09BFD47
:101B90002A238DF80830404605F099FD94F860300E
:101BA00001336A4602A9204606F03AF9404605F09C
:101BB0008AFD002784F891745BE00A2003F022F884
:101BC00094F88A34012BF8D094F891345BB901353C
:101BD000EDB2092D48D804F163063246F0212046C3
:101BE000FFF7EFFEECE794F8923484F86230252298
:101BF0008DF808208DF80930404605F068FD022375
:101C00006A4602A9204606F00BF9404605F05BFD46
:101C100030238DF8083094F8612031460DF1090029
:101C200027F09CF8404605F052FD94F861300133EE
:101C30006A4602A9204606F0F3F8404605F043FD47
:101C40002A238DF80830404605F041FD94F86030B5
:101C500001336A4602A9204606F0E2F8404605F044
:101C600032FD002384F88B3494F89134D3B90137D2
:101C7000FFB23E2F19D825238DF808307B008DF850
:101C80000930404605F023FD02236A4602A920469A
:101C900006F0C6F8404605F016FD0A2002F0B2FF35
:101CA000002596E7002384F8913494F88B34002BB8
:101CB0003FF4F3AE30238DF8083004F1630594F857
:101CC000612029460DF1090027F048F8404605F04B
:101CD000FEFC94F8613001336A4602A9204606F002
:101CE0009FF8404605F0EFFC2A238DF80830D4F821
:101CF0006330CDF8093094F867308DF80D304046E8
:101D000005F0E5FC94F8603001336A4602A92046EC
:101D100006F086F8404605F0D6FC25238DF80830FD
:101D200094F862308DF80930404605F0D0FC02236B
:101D30006A4602A9204606F073F8404605F0C3FC47
:101D4000002384F88B34A8E610B50446002180F8FF
:101D50002D10283006F089F804F1380005F0B3FCA6
:101D600010BD70B504460D4605F0B1FC04F138060F
:101D7000304605F0ACFC294604F1280006F038F89E
:101D8000304605F0A0FC70BD70B504460D4605F068
:101D90009AFC04F13806304605F099FC294604F116
:101DA000280006F025F8304605F08DFC70BD0000D7
:101DB0002DE9F0438BB0044600F128070126089670
:101DC00007960696002505954FF400530493039556
:101DD0004FF48063029301954FF480730093B24BEC
:101DE0003246B249384604F0CBFD2946384604F065
:101DF000D1FE2946384604F041FF324602213846DA
:101E000004F024FFAA4A2146384604F051FF059504
:101E10004FF00308CDF8108003954FF40073029340
:101E2000019500954FF482732A46A249384605F081
:101E300069FF3146384606F042F83146384604F02C
:101E4000C2FE32462946384606F01CF8CDF800801E
:101E5000102304229849204605F028FCCDF8008084
:101E600010234FF40042954904F1380005F01EFCA0
:101E700004F1180903950295019500964FF47A73C1
:101E800042F210728E49484605F026FC04F10C0718
:101E9000CDF8008010231A468A49384605F006FC22
:101EA0004FF48C73E384F023A384384605F00FFCD1
:101EB000642006F0DBFB384605F005FC782006F0D0
:101EC000D5FB11212046FFF74CFF782006F0CEFB12
:101ED00036212046FFF745FFA0212046FFF754FF9B
:101EE0003A212046FFF73DFF05212046FFF74CFF32
:101EF000B2212046FFF735FF0C212046FFF744FFB3
:101F00000C212046FFF740FF29462046FFF73CFF03
:101F100033212046FFF738FF33212046FFF734FFF7
:101F2000B7212046FFF71DFF35212046FFF72CFF84
:101F3000BB212046FFF715FF32212046FFF724FF83
:101F4000C2212046FFF70DFF31462046FFF71CFF58
:101F5000C3212046FFF705FF15212046FFF714FF98
:101F6000C4212046FFF7FDFE20212046FFF70CFF8D
:101F7000C6212046FFF7F5FE0F212046FFF704FF9C
:101F8000D0212046FFF7EDFEA4212046FFF7FCFEFE
:101F9000A1212046FFF7F8FEE0212046FFF7E1FEF1
:101FA000D0212046FFF7F0FE08212046FFF7ECFE87
:101FB0000E212046FFF7E8FE09212046FFF7E4FE48
:101FC00009212046FFF7E0FE05212046FFF7DCFE51
:101FD00031212046FFF7D8FE33212046FFF7D4FEFB
:101FE00048212046FFF7D0FE17212046FFF7CCFE00
:101FF00014212046FFF7C8FE15212046FFF7C4FE36
:1020000031212046FFF7C0FE34212046FFF7BCFEF9
:10201000E1212046FFF7A5FED0212046FFF7B4FEC0
:1020200008212046FFF7B0FE0E212046FFF7ACFE48
:1020300009212046FFF7A8FE09212046FFF7A4FE4C
:1020400015212046FFF7A0FE31212046FFF79CFE18
:1020500033212046FFF798FE48212046FFF794FEE3
:1020600017212046FFF790FE14212046FFF78CFE33
:1020700015212046FFF788FE31212046FFF784FE18
:1020800034212046FFF780FE21212046FFF769FE1C
:1020900029212046FFF765FEB3EE040A484605F005
:1020A00001FE0BB0BDE8F0830C3C00400004024090
:1020B000491D0008003C0040001401400008014098
:1020C00000080040000C01402DE9F04104460F4695
:1020D00015461E46BDF818802A21FFF742FE390A30
:1020E0002046FFF751FE39462046FFF74DFE310AE4
:1020F0002046FFF749FE31462046FFF745FE2B21DB
:102100002046FFF72EFE290A2046FFF73DFE29460E
:102110002046FFF739FE4FEA18212046FFF734FE2C
:1021200041462046FFF730FE2C212046FFF719FEDE
:10213000BDE8F081F0B583B00546BDF820705E1AA9
:10214000B81A013006FB000695F82D40002CFBD193
:102150001433143100979BB289B22846FFF7B4FFBD
:1021600005F128044FF40061204605F07EFE284664
:1021700005F0A9FA05F1380005F0A9FA0121204679
:1021800004F03AFD32460999204605F0A7FE03B057
:10219000F0BD08B54B1EDBB2632B00D908BD07EEBE
:1021A000901AB8EEE70A183005F07CFDF6E700203B
:1021B00070470020704710B58E469446044618B10B
:1021C000012813D0042010BD02F5004C0CF1400C86
:1021D0004FEA0C3C002204E052F80C104EF80210BA
:1021E0000432B2EB033FF7D32046ECE71B0303F4C2
:1021F00070424FEA0C31704606F0A0FD0020E2E785
:102200002DE9F8430E4617461C46804620B10128AA
:102210003FD00420BDE8F88303F05EF903F06CF9C9
:1022200013E0284603F0D8F921E003F035FA6019ED
:10223000635931598B42F8D10434A4B2B4F5805FAC
:10224000F5D3013706F580564C4604F1FF3984B1C9
:1022500007F5004340331D03104AB2EB033FE0D3C0
:10226000284603F0B9F905F5006003F0B5F900243C
:10227000E4E703F051F903F057F94046CAE74FF499
:1022800080523903304606F04FFD013706F580567F
:102290002C46651E002CF2D10020BBE7FFFF07088B
:1022A000034618B1012815D004207047032911D81E
:1022B000DFE801F02702060BC021116018467047C5
:1022C0004FF480511180184670474FF4402111603F
:1022D00018467047032916D8DFE801F00204090EFA
:1022E000084670474FF480631360002070474FF436
:1022F00080531380002070474FF480031360002048
:10230000704708467047042070474278007840EADA
:1023100002207047C278837843EA0222437843EA76
:102320000223007840EA032070470170090A4170D7
:1023300070470170C1F307234370C1F307438370F3
:10234000090EC1707047802804D9FF2804D128B134
:10235000002070470020704701207047012070471F
:102360003F280BD97E280BD910F0800F02D148B13D
:1023700000207047FF28FAD00120704700207047E6
:10238000012070470120704702394369023B8B42AC
:1023900004D9836A408901FB0030704700207047F0
:1023A00070B506460D4601F11A00FFF7AEFF33780F
:1023B000032B00D070BD044605F11400FFF7A5FF04
:1023C00044EA0040F6E770B506460C46154691B261
:1023D00004F11A00FFF7A9FF3378032B00D070BD7A
:1023E000290C04F11400FFF7A0FFF8E7014600688C
:1023F00020B3024613780132202B01D93A2BF9D1B0
:102400003A2B01D0002070470378A3F1300C5FFA1B
:102410008CFCBCF1090F0ED80230904202D04FF074
:10242000FF307047A3F13000012802DD4FF0FF308C
:1024300070470A6070474FF0FF3070474FF0FF3031
:10244000704738B50D46044698B103689BB11A78B9
:10245000A2B18188DA88914203D0092000242C603F
:1024600038BD5878FFF7A3FE10F0010009D12468A9
:10247000F5E70920F3E71C460920F0E709200024CE
:10248000EDE709200024EAE770B5C5780DB92846C4
:1024900070BD044600F130060123C26A314640781F
:1024A000FFF7AEFE054688B90023E370E16A236AB0
:1024B000CB1AA2699342EAD2A378022BE7D1012377
:1024C0000A4431466078FFF79BFEE0E70125DEE72E
:1024D00070B5C36A8B4202D10026304670BD0446F7
:1024E0000D46FFF7D1FF06460028F6D101232A4604
:1024F00004F130016078FFF75EFE10B101264FF065
:10250000FF35E562E9E7000038B504460023C370F3
:102510004FF0FF33C362FFF7DBFF00285AD104F20C
:102520002E20FFF7F2FE054694F83030EB2B09D051
:10253000E92B07D0E82B05D04AF655239D4247D01A
:10254000032038BD4AF655239D4237D004F13B00A5
:10255000FFF7DBFE94F83D20431E1842ECD1B0F5A6
:10256000805FE9D3E8D8002AE6D0531E1A42E3D1AF
:1025700004F13E00FFF7C9FE0028DDD094F840309A
:10258000013B012BD8D804F14100FFF7BEFE002823
:10259000D2D004F14300FFF7B8FE7F2806D804F13B
:1025A0005000FFF7B7FEB0F5803FC5D304F14600F9
:1025B000FFF7ABFE0028BFD00020C2E70822064983
:1025C00004F1820026F098FB0028BFD10020B8E774
:1025D0000220B6E70420B4E7C091020870B584B0C9
:1025E00006460D460021FFF78FFF022803D02BD8A7
:1025F00055B3002400E00024032C0ED806F130006F
:10260000230103F5E3731844FFF784FE04AB03EBE7
:10261000840343F8100C0134EEE70DB16C1E0AE0A0
:102620002C4608E03046FFF76FFF6DB901280BD943
:102630000134032C08D804AB03EB840353F8101CBB
:102640000029EFD10320F0E704B070BD2DE9F84F69
:102650000C46154600230B60FFF7C8FE061EC0F2AD
:1026600019819F4B53F82670002F00F017812760C7
:1026700005F0FE053B7873B17878FFF798FD10F010
:10268000010408D1002D00F0068110F0040F00F0C5
:1026900002810A24FFE000233B70F0B27870FFF75C
:1026A00088FD10F0010440F0FB801DB110F0040F14
:1026B00040F0F88000213846FFF790FF042800F032
:1026C000F380012800F2F280FD6A07F13B00FFF77A
:1026D0001CFEB0F5805F40F0EB8007F14600FFF78D
:1026E00014FE064620B907F15400FFF713FE064614
:1026F000BE6197F84020BA70531EDBB2012B00F286
:10270000D98006FB02F897F83D90A7F80A90B9F136
:10271000000F00F0D18009F1FF3319EA030F40F0F8
:10272000CD8007F14100FFF7F0FD8246388110F0BF
:102730007F0F40F0C58007F14300FFF7E6FD8346B9
:1027400020B907F15000FFF7E5FD834607F13E0091
:10275000FFF7DBFD0246002800F0B48000EB080321
:1027600003EBDA139B45C0F0AF80ABEB030BBBFB75
:10277000F9F1CB45C0F0AA805A48814210D94FF0F8
:10278000000B4FF6F570814201D84FF0020B40F676
:10279000F570814207D9BBF1000F06D10D247AE014
:1027A0004FF0030BEDE74FF0010B01F10209C7F801
:1027B0001490FD612A443A622B44BB62BBF1030FC3
:1027C00025D0BAF1000F00F0878042447A62BBF155
:1027D000020F2DD009EB490309F0010909EB530958
:1027E00009F6FF73B6EB133F78D34FF0FF333B612D
:1027F000FB6080233B71BBF1030F1CD087F800B056
:10280000394A138801339BB21380FB8043E007F100
:102810005A00FFF77AFD00285AD1BAF1000F59D1BA
:1028200007F15C00FFF776FD78624FEA8909D7E788
:102830004FEA4909D4E707F16000FFF766FD012878
:10284000DCD1691C3846FFF743FE0028D6D10023AF
:102850003B7107F22E20FFF758FD4AF655239842A8
:10286000CCD107F13000FFF755FD204B9842C5D180
:1028700007F50570FFF74EFD1D4B9842BED107F5D9
:102880000670FFF747FD386107F50770FFF742FD57
:10289000F860B3E70B242046BDE8F88F0C24FAE774
:1028A0000324F8E70A24F6E70124F4E70D24F2E70D
:1028B0000D24F0E70D24EEE70D24ECE70D24EAE704
:1028C0000D24E8E70D24E6E70D24E4E70D24E2E714
:1028D0000D24E0E70D24DEE70D24DCE70D24DAE724
:1028E000C0140020F5FFFF0FC814002052526141B0
:1028F000727241612DE9F047012940F2818007465B
:102900000C46164643698B427CD90378022B45D08E
:10291000032B58D0012B03D002252846BDE8F087B1
:1029200001EB5108016A01EB1831FFF7D1FD0546B3
:102930000028F2D107F1300A08F10109C8F30B08A9
:1029400014F001041FD01AF9083003F00F0332010C
:1029500002F47F621343DBB20AF808300123FB70F4
:10296000396A01EB19313846FFF7B2FD05460028F8
:10297000D3D1C9F30B0944B1C6F307120AF80920F1
:102980000123FB70C9E7F3B2E6E71AF9092022F048
:102990000F02C6F303263243D2B2EFE7016A01EB1E
:1029A000D421FFF795FD05460028B6D107F1300088
:1029B00040F6FE7303EA4404B1B22044FFF7B5FCCD
:1029C0000123FB70A9E7016A01EB9421FFF780FD69
:1029D00005460028A1D126F0704607F1300340F6E5
:1029E000FC7202EA84041C442046FFF793FC00F0CA
:1029F000704131432046FFF79CFC0123FB708CE7BC
:102A000002258AE7022588E7F8B50568012957D924
:102A10000C466B698B4255D92B78022B2DD0032B9A
:102A20003CD0012B01D001204BE001EB5106296A7B
:102A300001EB16312846FFF74BFD10B14FF0FF3088
:102A40003FE0771CC6F30B062E4496F83060296AE7
:102A500001EB17312846FFF73BFDA8BBC7F30B0777
:102A60003D4495F8300046EA002014F0010F01D0F3
:102A7000000926E0C0F30B0023E0296A01EBD42112
:102A80002846FFF725FD10BB05F1300040F6FE7328
:102A900003EA44042044FFF738FC12E0296A01EB02
:102AA00094212846FFF714FDA0B9303540F6FC709C
:102AB00000EA84002844FFF72DFC20F0704000E07D
:102AC0000120F8BD0120FCE74FF0FF30F9E74FF09F
:102AD000FF30F6E74FF0FF30F3E72DE9F041D0F893
:102AE0000080B1F5001F40D206460F4611F01F0FBF
:102AF0003DD1016184682CB998F80030022B01D9CE
:102B0000D8F82440B4B9B8F80830B3EB571F30D91F
:102B1000D8F82430B3617461B36993B303EB17330E
:102B2000B36108F13003C7F30B011944F1610020D0
:102B3000BDE8F081B8F80A502D03AF420FD321460B
:102B40003046FFF761FF0446B0F1FF3F13D0012884
:102B500013D9D8F81430834211D97F1BEDE72146F1
:102B60004046FFF711FCB061D5E70220E0E7022004
:102B7000DEE70220DCE70120DAE70220D8E70220C6
:102B8000D6E70220D4E72DE9F041054606680F4656
:102B900051B9D6F80C80B8F1000F12D073694345D3
:102BA00011D84FF001080EE0FFF72EFF0346012871
:102BB00068D9B0F1FF3F6AD07269824267D8B846DF
:102BC00001E04FF001083369002B60D0B84501D017
:102BD000444640E008F101047369A34200D802248E
:102BE00021462846FFF710FF034601284FD0B0F1D9
:102BF000FF3F4CD038B1F368012BE9D972699A4292
:102C0000E6D99846E4E7002CE2D04FF0FF322146A7
:102C10003046FFF76FFE034600B92FBB5BBBF46085
:102C200032697369023B9A4201D8013A32613379C1
:102C300043F001033371234629E021462846FFF77C
:102C4000E3FE03460028E0D0012820D0B0F1FF3F8A
:102C50001DD044451AD001347369A342EDD8B8F1B0
:102C6000010F11D90224E8E7224639463046FFF722
:102C700041FE0346D2E7012B01D0012307E04FF0CC
:102C8000FF3304E0012302E0002300E000231846A4
:102C9000BDE8F081F8B50C46056801292ED9064635
:102CA00011466B69A3422BD94AB14FF0FF32284637
:102CB000FFF720FE074610B123E0A24221D92746A4
:102CC00021463046FFF7A0FE0446E0B101281CD0A3
:102CD000B0F1FF3F1BD0002239462846FFF70AFE1D
:102CE000074670B92B696A69911E8B42E5D20133A0
:102CF0002B612B7943F001032B71DEE7022700E003
:102D000002273846F8BD0027FBE70227F9E701272D
:102D1000F7E7F8B505460C46FFF7B6FB08B101200A
:102D2000F8BD21462846FFF72FFB0646E86205F16D
:102D300030074FF480520021384626F08BF80024EB
:102D400000E001346B89A34207D90123A219394657
:102D50006878FFF755FA0028F3D06889001B18BF80
:102D60000120DDE72DE9F843044688460768056938
:102D70002035B5F5001F01D300238361A369002B23
:102D800046D0C5F30B063EB90133A361616979B939
:102D90003B89B3EB551F07D9256107F13003334455
:102DA000E3610020BDE8F8830023A3610420F9E774
:102DB0007B89013B13EA1533EED12046FFF724FE51
:102DC0008146012826D9B0F1FF3F25D07B69834297
:102DD00012D8B8F1000F17D061692046FFF7D3FE73
:102DE0008146D8B101281BD0B0F1FF3F1AD001466F
:102DF0003846FFF78EFFB8B9C4F8149049463846F4
:102E0000FFF7C2FAA061C7E70023A3610420C9E766
:102E10000420C7E70220C5E70120C3E70720C1E778
:102E20000220BFE70120BDE70120BBE770B50446E3
:102E300006680021FFF751FE054640B1284670BDE7
:102E400000212046FFF78EFF05460028F6D1A16934
:102E50003046FFF73DFB05460028EFD1E0690378D7
:102E60007BB1C37A03F03F03A371C37A13F0080F59
:102E7000E6D10B2204F1200125F03EFF0028DFD12E
:102E8000DCE70425DAE7F8B504460E4607680021BA
:102E9000FFF723FE0246C0B9002508E00135B54220
:102EA00013D001212046FFF75DFF024668B9A169F2
:102EB0003846FFF70DFB024638B9E3691B78E52B6E
:102EC000ECD0002BEAD00025EBE7042A01D0104615
:102ED000F8BD0722FBE700002DE9F04F83B08046E4
:102EE0000191D1F8009000F1200B4FF020330362E4
:102EF0004362C0F8273000273E464FF0080A1AE028
:102F0000013519F805302F2BFAD05C2BF8D04D4441
:102F1000019B1D60002F5ED098F82030E52B47D034
:102F2000202C49D92B78202B4BD8042345E00827A7
:102F30004FF00B0A2E46751C19F80640202CE6D9D6
:102F40002F2CDED05C2CDCD02E2C01D0BA4508D83A
:102F5000BAF10B0F37D02E2CE9D0062003B0BDE814
:102F6000F08F2046FFF7EFF990B1023619F80550BF
:102F70002846FFF7F5F940B30AF1FF33BB4226D9E3
:102F80007B1C0BF807400BF8035002373546D1E79E
:102F90002146124825F0B0FFD8B9A4F16103DBB295
:102FA000192B01D8203CE4B20BF807400137C1E7E8
:102FB000052388F82030B3E7042388F82B3000205D
:102FC000CCE70023F9E70620C8E70620C6E706207D
:102FD000C4E70620C2E70620C0E700BFCC91020884
:102FE00030B583B004460191056801E001330193D7
:102FF000019B1A782F2AF9D05C2AF7D00022A26010
:103000001B781F2B1ED901A92046FFF765FF034639
:1030100000BB2046FFF70AFF94F82B200346E0B9D7
:1030200012F0040F16D1A37913F0100F1CD005F184
:1030300030032169C1F30B0119442846FFF7B0F9A9
:10304000A060E0E7802384F82B3011462046FFF78C
:1030500044FD0346184603B030BD0428FAD112F0EF
:10306000040FF7D10523F5E70523F3E770B5044610
:1030700006680121FFF707FF054608B1284670BD25
:10308000A1693046FFF724FA05460028F6D1202230
:103090000021E06925F0DEFEE369216A626A1960B9
:1030A0005A60218D94F82A2019819A720123F370B5
:1030B000E4E7000070B50446FFF7E6F9054648B9B5
:1030C0002378032B08D0002211466078FFF7E8F838
:1030D00000B10125284670BD2379012BF3D104F1FD
:1030E00030064FF480520021304625F0B3FE4AF6F8
:1030F000552104F22E20FFF718F90F493046FFF74B
:1031000018F90E4904F50570FFF713F9216904F564
:103110000670FFF70EF9E16804F50770FFF709F98B
:10312000E2690132E262012331466078FFF768F814
:1031300000232371C7E700BF52526141727241619F
:1031400010B584B0019000911446039103A8FFF7D5
:103150004DF9002817DB0D4B53F820300BB100223E
:103160001A70019B0BB100221A70084B019A43F8A8
:10317000202014B9204604B010BD002201A96846E1
:10318000FFF764FAF7E70B20F5E700BFC014002053
:103190002DE9F0438FB00191002800F0E180154641
:1031A000064602F03F073A4602A901A8FFF74EFA89
:1031B000044630B10CB10023336020460FB0BDE8A7
:1031C000F083029B0393019903A8FFF709FF0446CC
:1031D00018B99DF93730002B45DB15F01C0F53D083
:1031E000002C47D0042C40D047F00807002C5AD1BF
:1031F00017F0080F57D05B4D29460A980E30FFF79D
:1032000098F829460A981630FFF793F8DDF80880F9
:10321000DDF8289049464046FFF7C2F805462023CE
:1032200089F80B3000220A994046FFF7CCF80021BC
:103230000A981C30FFF77DF8029B0122DA7095B3E3
:10324000029BD3F82C800022294603A8FFF722FD19
:10325000044640BB41460298FFF73AF90446013D57
:10326000029BDD601FE00624B7E703A8FFF7FEFE20
:103270000446B9E79DF8123013F0110F12D115F082
:10328000040FB3D008240EE06CB99DF8123013F08F
:10329000100F3CD115F0020F05D013F0010F02D032
:1032A00007240BE007244CB917F0080F01D047F0B2
:1032B0004007029BDB6A33620A9B7362002C7FF437
:1032C00079AFDDF80890DDF8288041464846FFF7E1
:1032D00067F80546B06008F11C00FFF71BF8804650
:1032E000F060C6F80090B9F80630B3803774002358
:1032F0007374F361736117F0200F3FF45BAF002824
:103300003FF458AF7061B9F80A703F0306E0042437
:10331000D4E7B5F1FF3F0DD0A8EB070864B9B84575
:103320000AD929463046FFF76FFB05460128F0D839
:103330000224EEE70124EFE7B561002C7FF43AAFF9
:10334000C8F30B03002B3FF435AF29460298FFF773
:103350001BF818B100EB1833F3612BE702242AE7BE
:1033600009242AE7000021502DE9F04F85B00546D9
:103370000F46144699460023C9F8003003A9FFF709
:1033800060F88246002840F0988095F811A0BAF1C4
:10339000000F40F092802B7C13F0010F00F096801C
:1033A000EE686B69F61AA6424BD3264649E0A96936
:1033B0002846FFF729FB56E04FF0020A85F811A0D6
:1033C0007BE04FF0010A85F811A076E04FF0020A89
:1033D00085F811A071E00399CB7823B1C86A019BED
:1033E000C01AA04201D3240321E04FF480523031AF
:1033F00007EB0030FDF746F8F5E7019BEB616C69E0
:10340000C4F30B04C4F58054A64200D23446E969E3
:103410000398FFF75DF8002853D1039930316B69A9
:10342000C3F30B03224619443846FDF72BF8361B2D
:10343000D9F800302344C9F8003027446B691C4494
:103440006C61002E39D06B69C3F30B02002AD6D110
:10345000039AB2F80A8008F1FF3818EA133808D145
:10346000002BA4D1A8680128A6D9B0F1FF3FA8D0AD
:10347000A861DDF80CB0A9695846FEF785FF002861
:10348000A4D008EB00030193340BB6F5805FB4D3EE
:1034900008EB0403BBF80A20934201D9A2EB08040D
:1034A0002346019A39469BF80100FEF784FE002866
:1034B00091D04FF0010A85F811A0504605B0BDE843
:1034C000F08F4FF0010A85F811A0F6E74FF0070AD8
:1034D000F3E72DE9F04F85B005460F4616469846AE
:1034E0000023C8F8003003A9FEF7ABFF824600288E
:1034F00040F0C18095F811A0BAF1000F40F0BB80F8
:103500002B7C13F0020F00F0D1806B69F34269D37A
:10351000DE4367E000212846FFF735FB76E0A96926
:103520002846FFF730FB71E04FF0020A85F811A042
:10353000A1E04FF0010A85F811A09CE0FEF7A4FF7E
:10354000002873D04FF0010A85F811A093E04FF0E6
:10355000020A85F811A08EE0DDF80C90D9F82C1045
:10356000019BC91AA14201D324032CE04FF48052DD
:1035700007EB013109F13000FCF784FF002389F8E3
:103580000330F1E76A69EB689A4278D2019BEB61FC
:103590006C69C4F30B04C4F58054A64200D23446CF
:1035A000E9690398FEF794FF002875D1039830303D
:1035B0006B69C3F30B03224639461844FCF762FFDC
:1035C000039B0122DA70361BD8F800302344C8F878
:1035D000003027446B691C446C61EB689C4238BF27
:1035E0001C46EC60002E5CD06B69C3F30B02002A12
:1035F000CED1039AB2F80A9009F1FF3919EA1339CA
:103600000FD1002B8BD1A868002883D0002848D088
:10361000012889D0B0F1FF3F8BD0A861AB6803B916
:10362000A8600398C26AEB699A4287D0DDF80CB0B3
:10363000A9695846FEF7A8FE002888D009EB0003C8
:103640000193340BB6F5805F9CD309EB0403BBF800
:103650000A20934201D9A2EB09042346019A394674
:103660009BF80100FEF7CCFD00283FF475AF4FF04A
:10367000010A85F811A0504605B0BDE8F08F584604
:10368000FEF702FF18B9039B019ADA627EE74FF05A
:10369000010A85F811A0EEE74FF0010A85F811A0A4
:1036A000E9E72B7C43F040032B74E4E74FF0070A73
:1036B000E1E7000030B583B0044601A9FEF7C1FE82
:1036C00018B9237C13F0400F01D103B030BD216A3B
:1036D0000198FEF7FDFE0028F7D1656AEB7A43F00A
:1036E0002003EB72A26829462068FEF76CFEE168B1
:1036F00005F11C00FEF71DFE0A4905F11600FEF754
:1037000018FE002105F11200FEF70FFE019B0122B9
:10371000DA700198FFF7CEFC237C23F0400323747A
:10372000D3E700BF0000215010B582B00446FFF778
:10373000C1FF08B102B010BD01A92046FEF781FE0D
:103740000028F7D12060F5E72DE9F04182B0054669
:103750000C4601A9FEF775FE804608B995F8118060
:10376000B8F1000F34D1EB68A34204D22A7C12F0E6
:10377000020F00D11C466E6900236B61C4B1019B2E
:103780005F893F036EB1631EB3FBF7F3013EB6FBE7
:10379000F7F2934205D37B421E406E61A61BAC69D3
:1037A00004E0A868C0B1A86126460446002C37D1C1
:1037B0006B69EA68934204D9EB602A7C42F04002CC
:1037C0002A74C3F30B031BB1EB69A34200D0EC6175
:1037D000404602B0BDE8F08100212846FFF7D3F94A
:1037E000012804D0B0F1FF3F06D0A860DBE74FF01E
:1037F000020885F81180EBE74FF0010885F8118089
:10380000E6E721462846FFF7FFF80446B4F1FF3FFC
:1038100026D0012C29D9019B5B69A34225D9AC6133
:10382000BE420FD9F61B6B693B446B612B7C13F0D6
:10383000020FE6D021462846FFF7A5F904460028E6
:10384000E4D106466B6933446B61C6F30B03B3B135
:1038500021460198FEF798FD60B100EB1634A7E70A
:103860004FF0010885F81180B2E74FF0020885F8A3
:103870001180ADE74FF0020885F81180A8E71C46DB
:1038800096E70000034B0360034B0B60802313603B
:10389000704700BFCC160020CC140020034B0360FF
:1038A000034B0B604FF4807313607047281B00209C
:1038B0002817002000F1080343604FF0FF328260B8
:1038C000C3600361002303607047002303617047F6
:1038D00043684B609A688A60516099600861036828
:1038E00001330360704730B40D68B5F1FF3F11D06C
:1038F00000F108031C465B681A68AA42FAD963689B
:103900004B6099608C6061600861036801330360FB
:1039100030BC70470469F2E70369416882688A60D5
:10392000416851605A68824206D0002202611A68DA
:10393000013A1A601868704782685A60F5E700001B
:1039400082B0002301930D4B1B68B3F1FF3F08D0F9
:103950004FF0500383F31188BFF36F8FBFF34F8F86
:10396000FEE74FF0500383F31188BFF36F8FBFF36F
:103970004F8F019B002BFCD002B07047000000204D
:1039800008480068006880F308884FF0000080F362
:10399000148862B661B6BFF34F8FBFF36F8F00DF3D
:1039A00000BF000008ED00E0DFF80C00016841F402
:1039B000700101607047000088ED00E04FF08073F7
:1039C00040F8043C21F0010140F8081C054B40F888
:1039D0000C3C40F8202C6FF0020340F8243C4438A3
:1039E000704700BF413900080000000000000000DF
:1039F000074B19680868B0E8F04F80F30988BFF3F7
:103A00006F8F4FF0000080F311887047AFF3008094
:103A1000E44300204FF0E023D3F8002D394B9A42C5
:103A20001CD04FF0E023D3F8002D374B9A421ED024
:103A300030B583B0354B1A78D2B20192FF221A709A
:103A40001B78DBB28DF803309DF8033003F0500390
:103A50002F4A13702F4B07221A601BE04FF05003C0
:103A600083F31188BFF36F8FBFF34F8FFEE74FF0E3
:103A7000500383F31188BFF36F8FBFF34F8FFEE7BF
:103A8000244A1368013B13609DF803305B00DBB2EE
:103A90008DF803309DF8033013F0800FF0D11D4BEB
:103AA0001B68032B08D04FF0500383F31188BFF33A
:103AB0006F8FBFF34F8FFEE71B02164A136003F4AC
:103AC000E0631360019BDBB2104A13704FF0E024F7
:103AD000D4F8203D43F47003C4F8203D00250E4B7C
:103AE0001D60FFF761FFD4F8343F43F04043C4F852
:103AF000343FFFF745FF01F0ABF8FFF721FF284601
:103B000003B030BD71C20F4170C20F4100E400E04C
:103B1000841B0020881B0020000000204FF0500371
:103B200083F31188BFF36F8FBFF34F8F0B4A136876
:103B300001331360012B00D070474FF0E023D3F81E
:103B4000043D13F0FF0FF7D04FF0500383F31188BB
:103B5000BFF36F8FBFF34F8FFEE700BF0000002061
:103B6000094B1B6843B94FF0500383F31188BFF32F
:103B70006F8FBFF34F8FFEE7013B034A13600BB912
:103B800083F31188704700BF000000200000000090
:103B9000EFF30980BFF36F8F154B1A681EF0100FFB
:103BA00008BF20ED108A20E9F04F10602DE90900D0
:103BB0004FF0500080F31188BFF34F8FBFF36F8F2A
:103BC00001F046F84FF0000080F3118809BC196835
:103BD0000868B0E8F04F1EF0100F08BFB0EC108A74
:103BE00080F30988BFF36F8F704700BFAFF3008089
:103BF000E443002008B54FF0500383F31188BFF36E
:103C00006F8FBFF34F8F00F0EDFE28B14FF0E02330
:103C10004FF08052C3F8042D002383F3118808BDB0
:103C2000EFF305830F2B0FD9114A9B5CDBB2114ACE
:103C300012789A4208D94FF0500383F31188BFF3EA
:103C40006F8FBFF34F8FFEE74FF0E023D3F80C3DAB
:103C500003F4E063084A1268934208D94FF0500316
:103C600083F31188BFF36F8FBFF34F8FFEE7704769
:103C7000F0E300E0841B0020881B0020124A12F0B1
:103C8000070F1ED0D11D21F00701C1F520531344A9
:103C90000A460E480260002141601344083B23F0AD
:103CA00007030B48036059601960991A516013604B
:103CB000084B1960084B1960084B4FF000421A601E
:103CC00070474FF42053E4E7901B00209C430020F2
:103CD0008C1B002098430020944300209043002038
:103CE000164B1A461B688342FBD3516802EB010C4A
:103CF000844509D0416800EB010C634509D003609D
:103D0000904219D0106070474068014451601046DD
:103D1000F0E710B40A4C2468A3420BD05B68194446
:103D2000416013681B680360904200D010605DF82A
:103D3000044B70470460F7E7704700BF9C430020C6
:103D40008C1B002070B5054600F03EFE344B1B680E
:103D5000A3B1344B1B681D424AD135B1083515F06B
:103D6000070F02D025F007050835002D42D02E4B55
:103D70001B68AB424DD32D4A146804E0FFF77EFF69
:103D8000E7E722461C466368AB4202D22368002B59
:103D9000F7D1234B1B68A3423DD016680836236831
:103DA000136063685B1B102B10D9601910F0070FAC
:103DB00008D04FF0500383F31188BFF36F8FBFF328
:103DC0004F8FFEE743606560FFF78AFF6268164920
:103DD0000B689B1A0B60164909688B4201D2144983
:103DE0000B60104B1B68134363600023236002E0E9
:103DF000002600E0002600F089FE16F0070F0CD028
:103E00004FF0500383F31188BFF36F8FBFF34F8FD1
:103E1000FEE70026EFE70026EDE7304670BD00BF65
:103E20008C1B002090430020944300209C430020E2
:103E30009843002080B338B50446A0F1080550F837
:103E4000043C164A1268134208D14FF0500383F322
:103E50001188BFF36F8FBFF34F8FFEE750F8081C38
:103E600041B14FF0500383F31188BFF36F8FBFF35D
:103E70004F8FFEE723EA020340F8043C00F0A4FD64
:103E800054F8041C064A13680B4413602846FFF7D5
:103E900027FF00F03BFE38BD704700BF9043002075
:103EA0009443002010B50446FFF738FEA26BE36B85
:103EB0009A4204D00024FFF753FE204610BD01248F
:103EC000F9E710B50446FFF729FEA36B23B90124D7
:103ED000FFF746FE204610BD0024F9E770B5044602
:103EE0001546866B026C5AB903681BB10020013677
:103EF000A66370BD406800F0D3FF00236360F6E75F
:103F00006DB98068FCF7BEFA226CA3681344A36005
:103F10006268934219D32368A3602846E7E7C06824
:103F2000FCF7B0FA226C5142E3689B1AE360226806
:103F3000934202D263680B44E360022D01D000205B
:103F4000D5E726B1013E0020D1E72846CFE7002083
:103F5000CDE70346026C6AB110B50846D968114432
:103F6000D9605C68A14201D31968D960D968FCF7AF
:103F700089FA10BD704738B50546FFF7CFFD95F8B3
:103F8000454064B201E0013C64B2002C0ADD6B6A7A
:103F900043B105F1240000F0D9FE0028F3D000F071
:103FA00069FFF0E7FF2385F84530FFF7D9FDFFF7FC
:103FB000B5FD95F8444064B201E0013C64B2002CC8
:103FC0000ADD2B6943B105F1100000F0BFFE0028A7
:103FD000F3D000F04FFFF0E7FF2385F84430FFF700
:103FE000BFFD38BD38B5E0B10D460446FFF796FD7C
:103FF0002368E26B216C01FB023060600020A0634B
:10400000A360013A02FB0133E360FF2384F84430EC
:1040100084F84530FDB9236963B9FFF7A1FD01209C
:1040200038BD4FF0500383F31188BFF36F8FBFF398
:104030004F8FFEE704F1100000F088FE0028ECD05E
:104040004FF0E0234FF08052C3F8042DBFF34F8FA1
:10405000BFF36F8FE1E704F11000FFF72BFC04F1D1
:104060002400FFF727FCD8E738B51D46049C0B4613
:1040700049B92460E063236401212046FFF7B2FFC1
:1040800084F84C5038BD2260F4E740B94FF050033B
:1040900083F31188BFF36F8FBFF34F8FFEE710B527
:1040A00084B01C46844653B192B189B94FF0500395
:1040B00083F31188BFF36F8FBFF34F8FFEE74FF08D
:1040C000500383F31188BFF36F8FBFF34F8FFEE769
:1040D0006AB150230393039B502B13D04FF050032E
:1040E00083F31188BFF36F8FBFF34F8FFEE7002973
:1040F000EFD04FF0500383F31188BFF36F8FBFF3FE
:104100004F8FFEE7012384F8463000949DF8183065
:104110006046FFF7A9FF204604B010BDF0B585B09A
:10412000019288B10F461D460446B1B1022D20D13F
:10413000E36B012B1DD04FF0500383F31188BFF3C5
:104140006F8FBFF34F8FFEE74FF0500383F311885B
:10415000BFF36F8FBFF34F8FFEE7036C002BE5D0EB
:104160004FF0500383F31188BFF36F8FBFF34F8F6E
:10417000FEE700F085FE064658B9019B002B48D0AB
:104180004FF0500383F31188BFF36F8FBFF34F8F4E
:10419000FEE700263DE02A4639462046FFF79EFE10
:1041A000636A7BB948B14FF0E0234FF08052C3F807
:1041B000042DBFF34F8FBFF36F8FFFF7D1FC0120AA
:1041C00005B0F0BD04F1240000F0C0FD0028F4D0DB
:1041D0004FF0E0234FF08052C3F8042DBFF34F8F10
:1041E000BFF36F8FE9E7FFF7BBFC0020E8E702A809
:1041F00000F0F2FD012619E0002384F8443021E0AC
:10420000002384F8453023E02046FFF7B4FE00F099
:104210007DFCFFF783FCA26BE36B9A42BBD3022DBC
:10422000B9D0019B002BDED0002EE0D0FFF798FC28
:1042300000F0CAFBFFF772FC94F8442052B2B2F1CE
:10424000FF3FD9D094F8452052B2B2F1FF3FD7D00A
:10425000FFF786FC01A902A800F0CAFDD8B92046E4
:10426000FFF720FE0028CFD0019904F1100000F0E4
:1042700039FD2046FFF77FFE00F048FC0028C8D13A
:104280004FF0E0234FF08052C3F8042DBFF34F8F5F
:10429000BFF36F8FBDE72046FFF76DFE00F036FCE1
:1042A00000208DE72DE9F84390B10F4616461C46D5
:1042B0000546B1B1022C20D1EB6B012B1DD04FF084
:1042C000500383F31188BFF36F8FBFF34F8FFEE767
:1042D0004FF0500383F31188BFF36F8FBFF34F8FFD
:1042E000FEE7036C002BE5D04FF0500383F31188F9
:1042F000BFF36F8FBFF34F8FFEE7FFF791FCEFF334
:1043000011894FF0500383F31188BFF36F8FBFF310
:104310004F8FAA6BEB6B9A4206D3022C04D000207D
:1043200089F31188BDE8F88395F845804FFA88F83D
:10433000224639462846FFF7D1FDB8F1FF3F06D0A7
:1043400008F101035BB285F845300120E8E76B6AAC
:104350000BB90120E4E705F1240000F0F7FC18B1E7
:1043600026B101203060DBE70120D9E70120D7E743
:10437000F0B585B0019290B10F460446C1B100F08E
:104380007FFD064600BB019B002B5ED04FF0500323
:1043900083F31188BFF36F8FBFF34F8FFEE74FF0AA
:1043A000500383F31188BFF36F8FBFF34F8FFEE786
:1043B000036C002BE3D04FF0500383F31188BFF35D
:1043C0006F8FBFF34F8FFEE700263EE03946204651
:1043D000FFF7BFFD013DA563236923B9FFF7C0FBCC
:1043E000012005B0F0BD04F1100000F0AFFC002882
:1043F000F4D04FF0E0234FF08052C3F8042DBFF308
:104400004F8FBFF36F8FE9E7FFF7AAFB0020E8E7C4
:1044100002A800F0E1FC012621E0002384F84430EA
:1044200029E0002384F845302BE02046FFF7A3FD68
:1044300000F06CFB09E02046FFF79DFD00F066FBF5
:104440002046FFF73EFD00283FD1FFF767FBA56B35
:10445000002DBBD1019B002BD6D0002ED8D0FFF76A
:104460007FFB00F0B1FAFFF759FB94F844305BB2E0
:10447000B3F1FF3FD1D094F845305BB2B3F1FF3FC9
:10448000CFD0FFF76DFB01A902A800F0B1FC002816
:10449000D1D12046FFF715FD0028C6D0019904F1BF
:1044A000240000F01FFC2046FFF765FD00F02EFB06
:1044B0000028CAD14FF0E0234FF08052C3F8042DFA
:1044C000BFF34F8FBFF36F8FBFE7002089E7000076
:1044D0000023072B0CD8074A52F833200AB10133C6
:1044E000F7E7044A42F8331002EBC3035860704701
:1044F000704700BFA443002070B504460D46164621
:10450000FFF70CFB94F844305BB2B3F1FF3F0DD0E2
:1045100094F845305BB2B3F1FF3F0BD0FFF720FBBF
:10452000A36B5BB12046FFF726FD70BD002384F826
:104530004430EDE7002384F84530EFE73246294662
:1045400004F1240000F0E6FBECE70000084B1B68D8
:104550001B6823B9074B4FF0FF321A607047044BBA
:104560001B68DB68DB685A68024B1A60704700BF43
:10457000E8430020944800202DE9F04780460D468E
:1045800017469946089EDDF824A00A9C9200A521B2
:10459000206B24F05FFC236B07F18042013A03EBB0
:1045A000820727F007074FF0000CBCF10F0F0BD864
:1045B00015F80C2004EB0C0383F8342015F80C30AC
:1045C00013B10CF1010CF0E7002384F84330372ECF
:1045D00000D93726E662E66400252565201DFFF731
:1045E00074F904F11800FFF770F92461C6F1380678
:1045F000A6616462656584F858504A46414638466B
:10460000FFF7DCF92060BAF1000F01D0CAF80040D2
:10461000BDE8F08738B5002407E004EB840293007E
:104620000E481844FFF746F90134372CF5D90C4DE4
:104630002846FFF73FF90B4C2046FFF73BF90A48A5
:10464000FFF738F90948FFF735F90948FFF732F95C
:10465000084B1D60084B1C6038BD00BFF0430020B4
:10466000684800207C4800209C480020C848002062
:10467000B4480020E8430020EC43002010B5044675
:10468000FFF74CFA224A136801331360214B1B6871
:104690005BB1214B1B686BB91E4B1B68DA6AE36A7E
:1046A0009A4207D81B4B1C6004E01A4B1C6013682D
:1046B000012B29D0194A1368013313606364E06A3F
:1046C000174B1B68984201D9154B186000EB80000E
:1046D000211D144B03EB8000FFF7FAF8FFF740FAB7
:1046E0000D4B1B687BB10B4B1B68DA6AE36A9A427D
:1046F00009D24FF0E0234FF08052C3F8042DBFF3EE
:104700004F8FBFF36F8F10BDFFF784FFD2E700BF5D
:1047100050480020E4430020B048002060480020BA
:1047200064480020F043002010B5044690F859304A
:1047300063B1012B11D0022B0ED04FF0500383F345
:104740001188BFF36F8FBFF34F8FFEE7006BFFF74A
:1047500071FB2046FFF76EFB10BDFFF76BFBFBE71D
:104760000F4B1B68D3B110B5FFF7D8F90D4BDB68C1
:10477000DC68201DFFF7D0F80B4A1368013B13607B
:10478000074A1368013B1360FFF7EAF92046FFF779
:10479000CBFF034B1B68002BE6D110BD704700BF59
:1047A00054480020C84800205048002008B5FFF7B2
:1047B000D7FF074B1B68012BF9D94FF0E0234FF0CF
:1047C0008052C3F8042DBFF34F8FBFF36F8FEEE716
:1047D000F043002070B504460D46174B1E68174B7A
:1047E00018680430FFF798F8B4F1FF3F0DD0344457
:1047F000124B1B685C60A64210D9114B18680F4B16
:1048000019680431FFF76FF870BD002DEFD00B4B26
:10481000196804310B48FFF75BF8F5E70A4B186895
:10482000064B19680431FFF75EF8084B1B68A3427A
:10483000EAD9064B1C60E7E7DC480020E44300208F
:10484000EC430020B4480020E843002094480020B6
:1048500030B587B00B9C7CB10C9DB5B15C2504953F
:10486000049D5C2D1AD04FF0500383F31188BFF3E1
:104870006F8FBFF34F8FFEE74FF0500383F3118824
:10488000BFF36F8FBFF34F8FFEE74FF0500383F3FB
:104890001188BFF36F8FBFF34F8FFEE70C9D2C6322
:1048A000022485F8594000240394029505AC019434
:1048B0000A9C0094FFF760FE0C98FFF7DFFE059856
:1048C00007B030BD2DE9F04385B007468846144651
:1048D0001E469000FFF736FA00B381465C20FFF7D2
:1048E00031FA0546B0B1C0F83090E5B1002385F843
:1048F0005930039302950D9B01930C9B0093334613
:10490000224641463846FFF737FE2846FFF7B6FEF7
:10491000012005E04846FFF78DFAE6E74FF0FF304B
:1049200005B0BDE8F0834FF0FF30F9E710B588B06F
:1049300000240594069407AA06A905A8FEF7A2FF7D
:10494000059B0293069B019300942346079A1849FE
:104950001848FFF77DFF184B186040B100F054FB7A
:10496000012806D0B0F1FF3F18D008B010BD0020DC
:10497000F6E74FF0500383F31188BFF36F8FBFF357
:104980004F8F0E4B4FF0FF321A600D4B01221A6011
:104990000C4B00221A60FFF73DF8E6E74FF050039A
:1049A00083F31188BFF36F8FBFF34F8FFEE700BF14
:1049B000DC910208AD470008904800209448002090
:1049C000B0480020DC480020024A1368013313601D
:1049D000704700BF5C480020014B1868704700BF5B
:1049E000DC480020F8B53E4B1B68002B6AD13D4BDC
:1049F0001D6801351D60C5B93B4B1B681B6843B181
:104A00004FF0500383F31188BFF36F8FBFF34F8FC5
:104A1000FEE7354A1168354B186810601960344A52
:104A2000136801331360FFF791FD324B1B68AB42F3
:104A30003ED90027304B1B68DB6A03EB83039A00E7
:104A40002E4B9B58012B00D901272D4B1B68002BA7
:104A50003FD104F001FB3CE00127234B1B681B689E
:104A600043B3214B1B68DB68DC6863689D4226D337
:104A7000261D3046FEF750FFA36A1BB104F1180053
:104A8000FEF74AFFE36A1F4A1268934201D91D4AA2
:104A9000136003EB83039A00314618481044FEF775
:104AA00017FFE26A144B1B68DB6A9A42D4D2D4E740
:104AB0000027D2E70F4B4FF0FF321A60BAE70D4ADA
:104AC0001360B7E70E4A13680133136004F0C4FAA9
:104AD00000270D4B1B6803B101273846F8BD00BF06
:104AE0005C480020DC480020E8430020EC43002024
:104AF0009848002094480020E4430020F043002020
:104B00005848002064480020E048002038B5354B64
:104B10001B6843B94FF0500383F31188BFF36F8FC5
:104B2000BFF34F8FFEE7FEF7F9FF2E4B1A68013AED
:104B30001A601B68002B4FD12B4B1B680BB900244C
:104B40004BE00024294B1B681BB3284BDB68DC6857
:104B500004F11800FEF7E0FE251D2846FEF7DCFEF6
:104B6000E06A234B1B68984201D9214B186000EB87
:104B7000800029461F4B03EB8000FEF7A9FEE26A86
:104B80001D4B1B68DB6A9A42DCD31C4B01221A6066
:104B9000D8E70CB1FFF7DAFC194B1C6884B9174B46
:104BA0001C68D4B14FF0E0234FF08052C3F8042DBD
:104BB000BFF34F8FBFF36F8F01240EE0013C07D08E
:104BC000FFF710FF0028F9D00C4B01221A60F5E71F
:104BD0000B4B00221A60E2E70024FEF7C1FF2046DB
:104BE00038BD00BF5C480020504800209C48002091
:104BF00064480020F0430020E4430020E048002007
:104C00005848002010B5A8B10446104B1B6843B1AA
:104C10004FF0500383F31188BFF36F8FBFF34F8FB3
:104C2000FEE7FFF7D1FE00212046FFF7D3FDFFF797
:104C30006DFF48B94FF0E0234FF08052C3F8042DC8
:104C4000BFF34F8FBFF36F8F10BD00BF5C480020D4
:104C50001F4B1B681BB11F4B01221A6070471D4B75
:104C600000221A601C4B1B6803EB83018A001B495E
:104C70008A585AB90BB1013BF6E74FF0500383F362
:104C80001188BFF36F8FBFF34F8FFEE703EB8300F5
:104C900082000A4450684068506003EB830C4FEA7E
:104CA0008C020832114488420BD003EB830291003E
:104CB0000A4A0A445268D168094A1160064A1360D8
:104CC0007047406862469100044A0A445060ECE72D
:104CD0005C480020E048002064480020F0430020A9
:104CE000E443002058B110B50C46094A1168183148
:104CF000FEF7F9FD01212046FFF76CFD10BD4FF0D6
:104D0000500383F31188BFF36F8FBFF34F8FFEE71C
:104D1000E443002038B570B10D4614460A4A1168C4
:104D20001831FEF7D5FD0CB14FF0FF35214628466E
:104D3000FFF750FD38BD4FF0500383F31188BFF3E8
:104D40006F8FBFF34F8FFEE7E443002038B5C36891
:104D5000DC6824B304F118052846FEF7DDFD184B86
:104D60001B682BBB251D2846FEF7D6FDE06A154BB8
:104D70001B68984201D9134B186000EB800029464C
:104D8000114B03EB8000FEF7A3FDE26A0F4B1B689B
:104D9000DB6A9A4211D901200D4B186038BD4FF0E3
:104DA000500383F31188BFF36F8FBFF34F8FFEE77C
:104DB00029460848FEF78CFDE7E70020EEE700BF34
:104DC0005C48002064480020F0430020E4430020B9
:104DD000E04800209C480020034B1B680360034B05
:104DE0001B684360704700BF98480020DC480020E3
:104DF000F8B5C8B10C460546F9B1FEF78FFE1B4B5E
:104E000019686B68C81A2268B2F1FF3F26D0184EA5
:104E100036682F68B74201D08B4224D9824215D818
:104E20000023236001241AE04FF0500383F311881C
:104E3000BFF36F8FBFF34F8FFEE74FF0500383F345
:104E40001188BFF36F8FBFF34F8FFEE75B1A1344D8
:104E500023602846FFF7C0FF002400E00024FEF78F
:104E60007FFE2046F8BD0124F9E700BFDC480020A2
:104E700098480020014B01221A607047E04800204A
:104E8000054B1B6833B1054B1B680BB10020704705
:104E90000220704701207047B04800205C48002085
:104EA00000283BD038B504461E4B1B68834208D00F
:104EB0004FF0500383F31188BFF36F8FBFF34F8F11
:104EC000FEE7036D43B94FF0500383F31188BFF33E
:104ED0006F8FBFF34F8FFEE7013B0365C16AC26C62
:104EE00091421DD00BB1002038BD051D2846FEF7AC
:104EF00013FDE06CE062C0F13803A3610A4B1B684C
:104F0000984201D9084B186000EB80002946074BF6
:104F100003EB8000FEF7DCFC0120E5E70020704792
:104F20000020E1E7E443002064480020F043002033
:104F3000064B1A681368B3FA83F35B09036013B96D
:104F4000D368186870470020704700BFE44800200D
:104F500008B54160006191420CD8D21A83699A4227
:104F600001D3012008BD011D094B1868FEF7BBFCE9
:104F70000020F7E79A4201D2994206D2011D054B63
:104F80001868FEF7B0FC0020ECE70120EAE700BF5C
:104F9000E8480020E448002030B583B0FEF7BEFDAD
:104FA000114B1B681BB1FEF7DBFD03B030BD0F4D8D
:104FB0002846FEF77FFC0E4C2046FEF77BFC0D4B8F
:104FC0001D600D4B1C60002300930C4B0C4A1021FC
:104FD0000A20FFF75AF8044B18600028E3D009496B
:104FE000FFF776FADFE700BF084A00208C4900206F
:104FF000A0490020E4480020E8480020B8490020EB
:10500000EC480020E491020810B588B0FFF7C4FF17
:10501000124B1B68CBB100240594069407AA06A97D
:1050200005A8FEF73BFC059B0293069B0193022318
:1050300000932346079A0A490A48FFF709FC0A4BDE
:10504000186010B1012008B010BD4FF0500383F379
:105050001188BFF36F8FBFF34F8FFEE7084A002020
:10506000EC910208495300080C4A0020B8B19C4654
:1050700003461848006858B300B585B00091019206
:10508000029305291CDCFFF7FBFE022810D0002349
:105090001A4669460F480068FFF740F815E04FF0E0
:1050A000500383F31188BFF36F8FBFF34F8FFEE779
:1050B0000023069A694607480068FFF72FF804E0C6
:1050C000002362466946FFF7EDF805B05DF804FB82
:1050D00000207047084A002070B582B01A4B1B6848
:1050E0001A6852B3DB681E68DC68251D2846FEF787
:1050F00013FC636A20469847E369012BEED1A3694C
:1051000033449E4207D26360246129460E4B1868DF
:10511000FEF7E9FBE2E7002100910B46324620460C
:10512000FFF7A4FF0028D9D14FF0500383F3118873
:10513000BFF36F8FBFF34F8FFEE7044A1068024939
:105140000860136002B070BDE4480020E848002009
:1051500038B50546FFF740FC0446074B1B68834201
:1051600005D800232B60044B1C60204638BDFFF798
:10517000B3FF01232B60F6E7B449002070B582B07D
:1051800006460D4614490968C968CC68201DFEF71B
:10519000C3FBE169012904D0636A2046984702B045
:1051A00070BDA16933462A4631442046FFF7D0FE40
:1051B0000028F1D0002100910B4632462046FFF72F
:1051C00055FF0028E8D14FF0500383F31188BFF357
:1051D0006F8FBFF34F8FFEE7E448002070B582B0B9
:1051E00006460C46FFF7F0FB01A8FFF7B1FF019B55
:1051F0002BBB05460CB9B0421AD22CB1124B1B681E
:105200001C68B4FA84F464092246711B0F4B1868B9
:10521000FFF772F9FFF77AFC98B94FF0E0234FF0EF
:105220008052C3F8042DBFF34F8FBFF36F8F08E098
:10523000FFF76CFC29463046FFF7A0FF01E0FFF7BF
:1052400065FC02B070BD00BFE8480020084A00209D
:1052500010B588B002E0049B002B0FDA002204A9ED
:10526000384B1868FFF784F8002869D0049B002B9E
:10527000F1DA07990698059B9847ECE7069C636965
:1052800013B1201DFEF748FB03A8FFF761FF049B45
:10529000092BE3D801A252F823F000BFC552000841
:1052A000C5520008C55200085D5200080B530008A3
:1052B00031530008C5520008C55200085D5200086D
:1052C0000B530008059BA169024619442046FFF7CD
:1052D0003FFE0028C2D0636A20469847E369012B4D
:1052E000BCD1A269002100910B46059802442046DA
:1052F000FFF7BCFE0028B1D14FF0500383F31188B3
:10530000BFF36F8FBFF34F8FFEE70599A16131B1F6
:105310000346024601442046FFF71AFE9EE74FF07F
:10532000500383F31188BFF36F8FBFF34F8FFEE7F6
:1053300094F82C30002B91D12046FEF77BFD8DE7B1
:1053400008B010BD084A002000B583B001A8FFF7DF
:10535000EFFD0199FFF742FFFFF77AFFF6E7C06C18
:1053600080B2704703680B4201D1002070470120D2
:105370007047036823EA01030360704710B4042AEE
:1053800012D0082A1BD0022A00D0FEE704688B0046
:105390009A4022400B4400EB8300836803F0020331
:1053A000C2B1DBB9002016E004688B009A402240AD
:1053B0000B4400EB8300836803F00403F0E7046808
:1053C0008B009A4022400B4400EB8300836803F07B
:1053D0000803E5E700205DF8044B70470120FAE779
:1053E000436889008A4013434360704710B42D4BD3
:1053F000D3F800446FEA000C24EA0004C3F8004428
:10540000D3F8044424EA0004C3F80444D3F808445D
:1054100024EA0004C3F80844D3F80C4424EA000446
:10542000C3F80C4449B101290ED0012A20D0022A28
:105430002BD082B15DF8044B70471A49D1F8003483
:105440000343C1F80034F0E71649D1F804340343AC
:10545000C1F80434E9E7134BD3F808241043C3F828
:105460000804D3F80C240CEA0202C3F80C24E1E788
:105470000C4AD2F808340CEA0303C2F80834D2F814
:105480000C341843C2F80C04D4E7064BD3F80824B4
:105490000243C3F80824D3F80C241043C3F80C04C7
:1054A000C8E700BF00000140074BD3F81424D3F82D
:1054B00000340340024202D01BB900207047002094
:1054C00070470120704700BF00000140014BC3F846
:1054D0001404704700000140054B1B6913F0800F56
:1054E00005D0034B034A5A6002F188325A60704774
:1054F0000020024023016745054B1B6D13F0800F10
:1055000005D0034B034A5A6402F188325A6470474B
:105510000020024023016745024A136943F08003DB
:105520001361704700200240024A136D43F080036C
:1055300013657047002002400B4BDB6813F0010F2E
:105540000BD1094BDB6813F0100F08D1064BDB6859
:1055500013F0040F05D1002070470120704703208D
:1055600070470220704700BF002002400B4BDB6CED
:1055700013F0010F0BD1094BDB6C13F0100F08D1A6
:10558000064BDB6C13F0040F05D10020704701209F
:105590007047032070470220704700BF0020024080
:1055A00010B50446FFF7C8FF013C012801D1002CCB
:1055B000F8D1012800D010BD0420FCE710B5044646
:1055C000FFF7D4FF013C012801D1002CF8D10128BC
:1055D00000D010BD0420FCE738B504462A4BB3F8D0
:1055E000E030B3F5007F37D9284B984216D22848CF
:1055F000FFF7D6FF00B138BD264D2B6943F00203FB
:105600002B616C612B6943F040032B612048FFF74D
:10561000C7FF2B6923F002032B61ECE71C48FFF75F
:10562000CDFF0028E7D11B4B1A6D42F002021A652C
:105630005C65DB6913F0020F01D0164B5C61154C01
:10564000236D43F0400323651148FFF7B7FF236D37
:1056500023F002032365CEE70D48FFF7A1FF0028E2
:10566000C9D10C4D2B6943F002032B616C612B698E
:1056700043F040032B610648FFF792FF2B6923F0AC
:1056800002032B61B7E700BF00F7FF1FFFFF07080A
:105690000000FF0F0020024070B505460C46244B69
:1056A000B3F8E030B3F5007F2DD9224B984215D2E4
:1056B0002148FFF775FF034608B1184670BD1F4E1D
:1056C000336943F0010333612C601B48FFF768FF27
:1056D0000346326922F001023261EEE71648FFF715
:1056E0006DFF03460028E8D1144E336D43F00103EB
:1056F00033652C601048FFF761FF0346326D22F0DE
:1057000001023265D9E70C48FFF74AFF034600283B
:10571000D3D10A4E336943F0010333612C6006484C
:10572000FFF73EFF0346326922F001023261C4E70F
:1057300000F7FF1FFFFF07080000FF0F00200240D7
:1057400070B501F00F0E11F0100F03D0042A03D032
:105750004EEA020E002209E04EF0030EC26B1A431D
:10576000C263F7E744610560013292B2072A14D898
:10577000012494401C40F7D0066895004FF00F0CB0
:105780000CFA05FC26EA0C060EFA05F53543282925
:10579000E8D04829E7D10461E5E7082203E0446145
:1057A0004560013292B20F2A1AD84FF0010C0CFA60
:1057B00002FC1CEA0304F4D04568A2F1080C4FEA8D
:1057C0008C0C0F2606FA0CF625EA06050EFA0CFCE0
:1057D0004CEA05052829E2D04829E1D10461DFE738
:1057E00070BD000010B5002816DB1C4B5B68C0F3D1
:1057F00003421FFA80FE00F4401CBCF5401F0ED08F
:1058000010F4801F1DD04FF0030C0CFA02F223EAB3
:10581000020343F0E06309E0104BDB69E7E723F0A4
:10582000E0630E4C626822F0E062626021B1420DDA
:1058300012010EFA02F2134300280BDB074A5360F1
:1058400010BD420D12010EFA02F223EA020343F0E8
:10585000E063EBE7014AD361F2E700BF00000140DB
:1058600010B401F003039B000F229A4003290CD8C7
:1058700018498C6824EA02028A608A6800FA03F3F5
:1058800013438B605DF8044B704707290AD8114910
:10589000CC6824EA0202CA60CA6800FA03F3134320
:1058A000CB60EFE70B290AD80A490C6924EA020207
:1058B0000A610A6900FA03F313430B61E2E7054941
:1058C0004C6924EA02024A614A6900FA03F313436D
:1058D0004B61D7E70000014040F0BF6040F400306A
:1058E000014BD860704700BF00ED00E070B5054681
:1058F0000E461446274BDB6803F4E063B3F5E06F14
:1059000025D0244BDB6803F4E063B3F5C06F38D0D7
:10591000204BDB6803F4E063B3F5A06F34D01D4B7C
:10592000DB6803F4E063B3F5806F30D0194BDB68BC
:1059300003F4E063B3F5407F02D10023042108E0C3
:105940004FF4A060FFF7C8FF0223194601E00423CB
:105950000021C1F104018E40C3F104030F2222FA99
:1059600003F31C4034432401E4B20B4A531983F877
:10597000004305F01F016D0901238B4042F82530DB
:1059800070BD03230121E4E702231946E1E7012367
:105990000321DEE700ED00E000E100E0830903F110
:1059A000804303F504331A6800F01F00012101FA57
:1059B00000F0104318607047830903F1804303F53A
:1059C00004331A6800F01F00012101FA00F01043AF
:1059D00018607047830903F1804303F504331A68A4
:1059E00000F01F00012101FA00F022EA0000186017
:1059F00070470000134A536823F0805323F4404358
:105A0000D26A22F000520B2809D8DFE800F006061F
:105A10000606080C080C1313131343EA80330949D4
:105A20004B60CA627047084901EA8030034343F083
:105A30008053F4E7054901EA8030034342F0005205
:105A4000EDE700BF0010024000C0FEFF00C0FCFFF9
:105A500008B5134B98421AD003F57443984204D00A
:105A6000A3F57843984209D008BD4FF44370FFF77F
:105A7000A3FF4FF44370FFF7ADFFF5E740F20E4090
:105A8000FFF79AFF40F20E40FFF7A4FFECE740F269
:105A90000F40FFF791FF40F20F40FFF79BFFE3E756
:105AA000003C0040026802F441520B681A434B6804
:105AB0001A438B681A43CB681A430B691A434B6924
:105AC0001A438B6913430360C36923F40063C36102
:105AD0007047C1607047C06880B2704783680B42EE
:105AE00001D00120704700207047000008B5334BFB
