:020000040800F2
:10000000FF9F0020CD0700082106000823060008F6
:100010002506000827060008290600080000000041
:100020000000000000000000000000002B06000897
:100030002D060008000000002F0600081D0500081E
:100040001D0800081D0800081D0800081D080008FC
:100050001D0800081D0800081D0800081D080008EC
:100060001D0800081D0800081D0800081D080008DC
:100070001D0800081D0800081D0800081D080008CC
:100080001D0800081D0800081D0800081D080008BC
:100090001D0800081D0800081D0800081D080008AC
:1000A0001D0800081D0800081D0800081D0800089C
:1000B0001D0800081D0800081D0800081D0800088C
:1000C0001D0800081D0800081D0800081D0800087C
:1000D0001D0800081D0800081D0800081D0800086C
:1000E0001D0800081D0800081D0800081D0800085C
:1000F0001D0800081D0800081D0800081D0800084C
:100100000000000000000000000000001D080008C2
:100110001D0800081D0800081D0800081D0800082B
:100120001D0800081D0800081D0800081D0800081B
:100130001D0800081D080008000000000000000065
:100140001D0800081D0800081D0800080000000028
:10015000000000000000000000000000000000009F
:1001600000000000000000001D0800081D08000835
:100170001D08000800000000000000000000000052
:08018000000000001D0800084A
:1001880010B5054C237833B9044B13B10448AFF3C9
:1001980000800123237010BD3404002000000000FB
:1001A8004809000808B5034B1BB103490348AFF3DE
:1001B800008008BD0000000038040020480900083D
:1001C80070B501F00F0E11F0100F03D0042A03D000
:1001D8004EEA020E002209E04EF0030EC26B1A43EB
:1001E800C263F7E744610560013292B2072A14D866
:1001F800012494401C40F7D0066895004FF00F0C7E
:100208000CFA05FC26EA0C060EFA05F535432829F2
:10021800E8D04829E7D10461E5E7082203E0446112
:100228004560013292B20F2A1AD84FF0010C0CFA2D
:1002380002FC1CEA0304F4D04568A2F1080C4FEA5A
:100248008C0C0F2606FA0CF625EA06050EFA0CFCAD
:100258004CEA05052829E2D04829E1D10461DFE705
:1002680070BD830903F1804303F504331A6800F075
:100278001F00012101FA00F010431860704783093C
:1002880003F1804303F504331A6800F01F000121CD
:1002980001FA00F0104318607047830903F18043A6
:1002A80003F504331A6800F01F00012101FA00F079
:1002B80022EA00001860704708B5134B98421AD01C
:1002C80003F57443984204D0A3F57843984209D0C3
:1002D80008BD4FF44370FFF7D2FF4FF44370FFF7A8
:1002E800DCFFF5E740F20E40FFF7C9FF40F20E4091
:1002F800FFF7D3FFECE740F20F40FFF7C0FF40F2F3
:100308000F40FFF7CAFFE3E7003C0040002303600B
:1003180043608360C360436183610361704702681F
:1003280002F441520B681A434B681A438B681A430C
:10033800CB681A430B691A434B691A438B691343F9
:100348000360C36923F40063C3617047036843F023
:10035800400303607047C160704783680B4201D057
:10036800012070470020704710B504460221054857
:10037800FFF7F3FF0028F9D021460248FFF7EBFF0B
:1003880010BD00BF0038004010B588B040F20E70B4
:10039800FFF767FF40F20360FFF763FF4FF4004386
:1003A800032218211148FFF70BFF114C2046FFF7D5
:1003B80083FF01A8FFF7AAFF4FF4404302934FF4CD
:1003C8008273019300230393022206924FF4007272
:1003D800049210220792059301A92046FFF79FFF78
:1003E8002046FFF7B3FF08B010BD00BF000C014066
:1003F8000038004008B5FFF7C7FF08BD10B5002357
:1004080006E02C4C4FF03F0C04F803C00133DBB27C
:10041800072B0AD801FA03F414F0800FF1D0254C09
:100428004FF0030C04F803C0F0E7002308E003F1E1
:100438000801204C4FF03F0C04F801C00133DBB237
:10044800072B0CD800FA03F111F0800FEFD003F15D
:100458000801184C4FF0030C04F801C0EEE7002324
:1004680006E003F1100113483F2444540133DBB282
:10047800072B0AD802FA03F111F0800FF1D003F12B
:1004880010010C4803244454F0E7002404E0FF2042
:10049800FFF76AFF0134E4B2312CF8D9002405E0F3
:1004A800044B185DFFF760FF0134E4B2172CF7D94D
:1004B80010BD00BF50040020104B1B68104AA2FB5F
:1004C80003239B09013BB3F1807F09D24FF0E0225F
:1004D800536100230B4981F823309361072313618B
:1004E800094B00221A609A80DA80044B1B68074A7D
:1004F800A2FB03239B0C064A1380704700000020D0
:10050800D34D621000ED00E06804002083DE1B4339
:1005180070040020074A938801339BB29380B3F597
:100528007A7F05D3134600229A801A6801321A602E
:10053800704700BF6804002003464FF0E02292692C
:1005480006490988B2FBF1F2C2F57A720449CA80F9
:1005580003C983E803001846704700BF70040020F1
:100568006804002000B52DED028B85B06B4683E84A
:100578000300164A13681B1A08EE103A9388BDF850
:1005880004209B1A07EE903AF8EEE77ADFED106A3E
:1005980087EEA67AB8EE488A38EE078A02A8FFF7EF
:1005A800CBFFBDF80E30BDF806209B1A07EE903A37
:1005B800F8EEE77A9FED077A87EE870A38EE000AA9
:1005C80005B0BDEC028B5DF804FB00BF6804002099
:1005D80000007A440024744900B52DED028B83B0E5
:1005E80008EE100A6846FFF7A7FF02AB13E90300FD
:1005F800FFF7B8FFF8EEC86A9FED067AC6EE877A6D
:10060800B4EEE70AF1EE10FAEFD903B0BDEC028BB5
:100618005DF804FB00007A447047FEE7FEE7FEE75A
:10062800FEE7704770477047334A136843F48033D6
:10063800136000230133304A126812F4003F02D1DC
:10064800B3F5006FF6D12C4B1B6813F4003F00D1B3
:10065800FEE7294BDA6942F08052DA6127490A68D5
:1006680042F440420A605A685A605A685A605A68A6
:1006780042F480625A605A6822F440325A605A68DA
:1006880042F440325A605A6822F0904222F47012C2
:100698005A605A6842F0036242F480225A601A682B
:1006A80042F080721A60144B1B6813F0007FFAD076
:1006B800124A136843F480331360104B5B6813F4D9
:1006C800803FFAD00D4A136843F4003313600B4B94
:1006D8005B6813F4003FFAD0074B5A6822F0030214
:1006E8005A605A6842F002025A60034B5B6813F082
:1006F800080FFAD0704700BF001002400070004099
:1007080008B5FFF791FF08BD00B583B01A4AD2F8C3
:10071800883043F47003C2F88830184B1A6842F0E6
:1007280001021A605A6842F080025A60002301935D
:1007380002E0019B01330193019A44F61F639A4238
:10074800F7D90E4B5A6822F003025A601A6822F051
:10075800847222F480321A604FF41F029A601A6879
:1007680022F480221A6000225A60DA62FFF7C8FF7A
:1007780003B05DF804FB00BF00ED00E0001002408C
:1007880008B5FFF799FEFFF735FE0022FF21104656
:10079800FFF734FE4FF47A70FFF71EFF0022114670
:1007A800FF20FFF72BFE4FF47A70FFF715FFFF22AB
:1007B80000210846FFF722FE4FF47A70FFF70CFF7E
:1007C800E3E70000DFF834D0002103E00C4B5B586E
:1007D800435004310B480C4B42189A42F6D30B4A4B
:1007E80002E0002342F8043B094B9A42F9D3FFF791
:1007F8008BFF00F011F8FFF7C3FFFEE7FF9F002013
:10080800700900080000002034040020340400208F
:1008180078040020FEE7000070B50D4E0D4D761BE4
:10082800B61006D0002455F8043B01349847A64278
:10083800F9D1094E094D761B00F082F8B61006D0A2
:10084800002455F8043B01349847A642F9D170BDFD
:1008580064090008640900086C09000864090008B4
:10086800024B13B1024800F005B8704700000000C1
:1008780089080008002301461A46184600F01AB8ED
:1008880038B5084B084D5B1B9C1007D0043B1D4432
:10089800013C55F804399847002CF9D1BDE8384097
:1008A80000F054B8700900086C090008704700BFD0
:1008B800704700BF2DE9F047DFF880A00646DAF858
:1008C800000098460F469146FFF7F0FF1A4B1B6849
:1008D800D3F8484124B365681F2D26DC5EB96B1C2C
:1008E8000235DAF80000636044F82570FFF7E0FF8E
:1008F8000020BDE8F08704EB85010123C1F888904A
:10090800D4F88821AB401A43022EC4F88821C1F8D4
:100918000881E4D1D4F88C211343C4F88C31DEE784
:1009280003F5A674C3F84841D5E7DAF80000FFF7E5
:10093800BFFF4FF0FF30DCE76009000830040020FB
:10094800F8B500BFF8BC08BC9E467047F8B500BFB4
:08095800F8BC08BC9E46704784
:04096000080000206B
:0809640069080008AD0100085C
:04096C0089010008F5
:10097000000E27070000000000000000F402002025
:100980005C030020C4030020000000000000000001
:100990000000000000000000000000000000000057
:1009A0000000000000000000000000000000000047
:1009B0000000000000000000000000000000000037
:1009C0000000000000000000000000000000000027
:1009D0000000000000000000000000000000000017
:1009E0000000000000000000000000000000000007
:1009F00000000000000000000000000000000000F7
:100A000000000000000000000000000000000000E6
:100A100000000000000000000000000000000000D6
:100A200001000000000000000E33CDAB34126DE673
:100A3000ECDE05000B0000000000000000000000DC
:100A400000000000000000000000000000000000A6
:100A50000000000000000000000000000000000096
:100A60000000000000000000000000000000000086
:100A70000000000000000000000000000000000076
:040DA00074040020B7
:04000005080007CD1B
:00000001FF
