:020000040800F2
:1000000000180020893C0008013A0008033A000863
:1000100000000000000000000000000000000000E0
:10002000000000000000000000000000053A000889
:100030000000000000000000073A00080539000831
:10004000CD3C0008CD3C0008CD3C0008CD3C00086C
:10005000CD3C0008B12A0008012B0008512B0008F4
:1000600000000000CD3C0008CD3C0008CD3C00085D
:10007000CD3C0008D7320008CD3C0008000000004D
:10008000133300084F330008000000008B330008D2
:10009000C7330008033400083F340008CD3C000893
:1000A000CD3C0008CD3C0008CD3C00083D370008A1
:1000B0008D37000800000000000000000000000074
:1000C000CD3C000800000000CD3C00085FF8E0F1E6
:1000D00010B540F25444C2F20004237863B940F2F0
:1000E0000003C0F200032BB143F6F470C0F6000029
:1000F00000E000BF0123237010BDC04640F20003A2
:10010000C0F2000310B54BB140F2584143F6F47011
:10011000C2F20001C0F6000000E000BF10BDC04602
:10012000844608006146FFE71FB500F047FB002842
:1001300001D40021C8421FBD10B500F0D9FA4042D9
:10014000013010BD10B500F039FB002801DB0020A4
:1001500010BD012010BDC04610B500F02FFB0028D7
:1001600001DD002010BD012010BDC04610B500F01B
:10017000E5FA002801DC002010BD012010BDC046BA
:1001800010B500F0DBFA002801DA002010BD0120D4
:1001900010BDC046F0B5C64643025B0A4E0245009C
:1001A0004F00DA00C40F9C46700A904600B52D0E31
:1001B0003F0EC90FB6098C424AD0EA1B002A36DD31
:1001C000002F5FD0FF2D00D1AAE08023DB041E4367
:1001D0001B2A00DCCFE001204346181A430100D45B
:1001E0008AE080018709380000F030FF0538874039
:1001F000854200DCB2E02D1AB1483840430704D0F4
:100200000F230340042B00D00430430100D476E0D8
:100210006A1CFE2D63D08001430A9C46D2B263461D
:10022000D0051843E407204380BCB846F0BDA2B314
:100230007A1B002D00D0ACE04346002B00D1A4E097
:10024000531E012A00D12BE1FF2A67D01A00A7E034
:10025000E91B00296EDDBFB3FF2D61D08023DB04D5
:100260001E431B2900DCAEE001204044430143D57E
:100270000135FF2D33D00123924A0340400810403E
:100280001843BBE7002E00D181E0511E012A00D1A6
:10029000D5E0FF2A44D00A009AE7FE276A1C1742DD
:1002A00000D084E0002D00D0B4E04346002B00D104
:1002B000F0E00022002EB2D0981B430100D4F7E0FA
:1002C00043460C00F01A99E7002E00D1C5E04A1E03
:1002D000012900D1ABE0FF2922D01100C1E7FF22A4
:1002E00040F2000C9BE7FE216A1C114275D0FF2AE8
:1002F000F5D0150046447008430700D080E7C308D6
:10030000FF2D0DD05B025B0A9C46EAB287E73EB147
:100310008022D203134203D0104201D10C0003000B
:10032000002BDCD08020C00318434002430A9C46C7
:10033000FF2274E70029D6D07A1B002D5ED14346F8
:1003400023B3531E012A72D0FF2AE8D01A001B2AB9
:1003500000DC84E001203D00801987E720233A007B
:10036000451B38000135EA405D1BA840431E9841FB
:100370000025104342E7202330009B1A31009840AB
:10038000D140431E9841084326E70C0003001500A6
:10039000B6E7FF2FC2D080234046DB0418438046D7
:1003A0001B2A50DD01200C003D00301A16E74346A1
:1003B0009F1B7B012AD4002F00D014E700240022C9
:1003C00040F2000C2BE7202332003000CA40591ABB
:1003D0008840431E9841104347E7002D49D14346CA
:1003E000002B62D00022002E00D118E730004044DC
:1003F000430181D5324B013518407DE7FF2F8ED068
:1004000080234146DB0419438846A0E743460C009D
:10041000F71AE8E64246002A00D078E7002E00D01E
:100420007CE78023DB0300249C46FF22F7E63000B4
:1004300040440125430100D45EE702251BE7434603
:100440000125981BCAE6202344464046D4409A1A08
:100450009040431E98412043A5E70D0050E720231C
:1004600041464046D1409A1A9040431E9841084365
:1004700071E74246002A00D151E7002E00D14FE734
:100480008022D203134200D14AE7104200D047E74E
:10049000030045E7002E91D00C0084460022BEE602
:1004A00043460C00F01A013598E684460022B6E671
:1004B000002800D020E7002440F2000CAFE6C04640
:1004C000FFFFFFFBFFFFFF7DF0B54F464646D646D8
:1004D000C0B5470045023F0E0C1C6D0AC60F002F29
:1004E0006ED0FF2F00D172E0EB00802540F20009B2
:1004F00040F2000AED041D437F3F6002430A984624
:1005000063001B0EE40F002B4CD0FF2B45D042465E
:10051000D0008022D2040243904600227F3B31006B
:10052000FF1A4B466140C9B213430F2B00D9B1E00B
:100530006C489B00C3589F4640F200082600454681
:1005400092465346022B00D185E0032B00D19AE05E
:10055000012B17D03B007F33002B65DD6A0704D0E9
:100560000F222A40042A00D004352A0103D55E4B0D
:100570001D403B008033FE2B6DDCAD016D0AD8B20F
:1005800002E00E0000200025C0052843F607304396
:10059000E0BCBA46B146A846F0BD4346EBBB0222DA
:1005A000FF3F02E0434663BB012231004B466140FE
:1005B000C9B213430F2B33D84C489B00C3589F46F6
:1005C00095B940F20409002740F2010A95E72DB9D8
:1005D00040F20809FF2740F2020A8EE740F20C09B8
:1005E000FF2740F2030A88E7280000F02FFD762756
:1005F000431F7F429D4040F2000940F2000A3F1A2B
:100600007BE7404600F022FD4246431F9A40762396
:100610005B4290461B1A002281E7FF2303227EE7FC
:100620000E00FF200025AFE70120C01A1B28A9DC1F
:100630009E372A00BD40C2406B1E9D4115436B078B
:1006400004D00F232B40042B00D004356B0144D57C
:100650000120002598E7FF20002595E7802500264A
:10066000FF20ED0390E740F200088020C003054220
:1006700009D04346034206D1454605436D02260094
:10068000FF206D0A80E78020C00305436D02FF2034
:100690006D0A79E742466B015001834219D21B2251
:1006A0000025013F01261C006D005B00002C01DBD2
:1006B000984201D81B1A3543013A002AF3D15A1E39
:1006C00093411D433B007F330E00002B00DD45E7C7
:1006D000AAE71A2201251B1AE4E7AD0100206D0AE2
:1006E00052E7C04634400008FFFFFFF7744000089F
:1006F00070B5420045024E024C00C30F6D0A012046
:10070000120E760A240EC90FFF2A06D0FF2C03D042
:10071000A24201D1B54206D070BD002DFCD1FF2C04
:10072000FAD1002EF8D18B4206D00120002AF3D155
:100730002800431E9841EFE70020EDE770B5420026
:1007400045024E024C00C30F6D0A120E760A240EAB
:10075000C80FFF2A0CD0FF2C0DD0B2B904B9CEB10E
:1007600075B183421AD00221581E0840013870BD6D
:100770000DBBFF2C09D1F6B9002AF2D1002DF0D122
:100780000028F4D101204042F1E7002CE9D1002EED
:10079000E7D1E8E70020002DE9D0E4E7A24205DC3C
:1007A000EEDBB54202D8EBD30020E0E743425841EC
:1007B00040000138DBE702204042D8E770B5420034
:1007C00045024E024C00C30F6D0A120E760A240E2B
:1007D000C80FFF2A07D0FF2C08D0CAB98CB986B938
:1007E00000206DB106E055B9FF2C11D13EB942B1E0
:1007F000834212D00221581E0840013800E0022036
:1008000070BD002DF4D10028FAD101204042F7E755
:10081000002CEDD1002EEBD1ECE7A24205DCF2DB9F
:10082000B54202D8EFD30020EAE7434258414000E6
:100830000138E5E7F8B598B1C317C6185E40C40F94
:10084000300000F003FC9E2305001B1A962B0FDCE2
:10085000082801DD083DAE407602760AD8B202E0F3
:10086000002400200026C0053043E4072043F8BDE3
:10087000992B0CDD05223100121AD1400A0001002B
:1008800030001B318840411E884102431600052D6F
:1008900012DC31000C4F3940720709D00F20304074
:1008A000042805D004314A0102D59F2339405B1B3F
:1008B00089014E0AD8B2D6E76A1F96403100024F2E
:1008C00039407207F4D0E9E7FFFFFFFB70B5050080
:1008D00070B100F0BBFB9E2304001B1A962B0CDCAE
:1008E000082801DD083CA5406D026D0AD8B201E080
:1008F00000200025C005284370BD992B09DD0200AA
:1009000029001B3291404A1E91410522121AD540FE
:100910000D43052C12DC29000C4E31406A0709D02A
:100920000F202840042805D004314A0102D59F2316
:1009300031401B1B89014D0AD8B2DBE7621F95408D
:100940002900024E31406A07F4D0E9E7FFFFFFFBC0
:10095000F0B557464E464546DE46E0B581460500B1
:1009600048000C03400D92461F0087B0240BCE0FA9
:10097000002800D17DE140F2FF73984200D19AE156
:100980006B0FE4001C438023D14A1B042343984689
:100990009446030040F2000940F2000B6344ED006E
:1009A00001937B003C035B0D5046240BFF0F002B93
:1009B00000D13CE140F2FF72934200D190E1420F3E
:1009C000E4001443802212041443C14AC100944637
:1009D0000020019A6344D31A019333004A467B40B6
:1009E00002930F2A28D8BB4B92009A58974602963A
:1009F0005B46022B16D0032B00D1B7E2012B00D0AF
:100A0000F1E0002200240025029B12052243DB07AF
:100A10001A432800110007B0F0BCBB46B246A946F5
:100A2000A046F0BD40F2FF7200240025ECE7A0468E
:100A30000D0083460297DBE7444500D2E9E100D18F
:100A4000E4E12F0040460025019B013B01930E0E7F
:100A50000A024FF6FF71240226433140240CB0FBFA
:100A6000F4FC8B4661465B46594363466343C01AB8
:100A70000304380C1843814208D901235B426344C4
:100A800080199846864200D828E2C446401AB0FB36
:100A9000F4F95B46494659434B464FF6FF786343AA
:100AA000C01A434600043B401843814206D94B46D6
:100AB00080195F1E864200D807E2B9466346411A94
:100AC00018044B4603434FF6FF7C98461F0C130C4B
:100AD0009A466046434618406346134004971F00F9
:100AE00047430397049F05937B43994653465843D6
:100AF0005F43039B48441B0C9C466044814503D9DB
:100B000080235B029C466744030C994603044FF61E
:100B1000FF704F449946039B18404844B94202D3A2
:100B200012D1854210D201235B424344AD1899464D
:100B300095429B415B429C46B44461448E4200D244
:100B4000B0E100D1ABE1C846281A8542AD41CF1BC8
:100B50006D427F1BBE4200D1E9E1B7FBF4F12300F7
:100B60005D464B434D43FF1A3F04030C1F43BD42F8
:100B700000D97CE17F1BB7FBF4F56C435B463F1B60
:100B80004FF6FF746B433F0420409B46384383423B
:100B900000D963E15B4609040D43C01A059B2F0C85
:100BA0001C007B434FF6FF719C46534629404C4343
:100BB000594361448946210C49445F438C4503D91C
:100BC00080235B029C4667440B0C9C46BC444FF65A
:100BD000FF7709043C400919604500D20AE100D1C1
:100BE00005E10122154340F2FF3C019A6244002ACC
:100BF00000DCB2E06B0700D043E1ED084346DB01C7
:100C000007D54346344A40F2004C13409846019AB7
:100C1000624440F2FE718A4200DD03E74346590711
:100C20000D4340F2FF715C02240B0A40ECE6514692
:100C30002143002900D17FE0002C00D100E12000F9
:100C400000F004FA02000B3A1D239B1A52460100E1
:100C5000DA40534608398B408C4019001443019BFD
:100C60009C466044030040F2F33C6344002001933F
:100C7000B3E64B4623439846002B55D0002C00D1B9
:100C8000CEE0200000F0E2F9010002000B391D2344
:100C90005B1A49461000D940083884400B004D4685
:100CA0002343984685400D4840F20009831A40F2DC
:100CB000000B019375E64B46234398465BBB40F21D
:100CC000FF73002540F2080940F2020B019368E629
:100CD00001FCFFFFB4400008FFFFFFFE0DFCFFFF1B
:100CE0005146214359B902234A461A439146A54A1F
:100CF000019B944663440024022001936DE6032384
:100D00004A461A4391469F4A019B94466344514682
:100D10000320019361E640F2FF73A04640F20C0904
:100D200040F2030B01933CE60023002540F2040946
:100D300040F2010B019334E64A4601231A439146DF
:100D40000024012049E60023802400250293240387
:100D500040F2FF7258E601256D420120801A3828C2
:100D600000DD4EE61F2800DCC1E01F21434649425A
:100D70008A1AD3401A00202806D040F23E4C43463F
:100D8000019961448B401D43691E8D412900114327
:100D90000722150000240D400A4200D1D9E00F209F
:100DA00000220840042800D1D0E0081D8842894173
:100DB000494252180100130200D4C7E00122002466
:100DC000002521E6802243461203134207D0144235
:100DD00005D1144324030D00240B0297B8E78024A7
:100DE000434624031C432403240B0296B0E7002946
:100DF00000D1F8E630186F1EB04200D28FE0604597
:100E000000D2AAE000D1B8E03D00EAE6A94200D94C
:100E100017E643466A08DF0758081743ED0716E64A
:100E2000484600F013F901000200153120321C2958
:100E300000DC2CE74B46083883400025984632E713
:100E400000F004F903001A00153220301C2A00DCDF
:100E5000FAE65446083B00219C4000E780196C1ECE
:100E6000864271D883426FD9023D801992E64B1EAB
:100E7000BF199C46BE4265D8BD4263D90239BF192D
:100E800078E60F212940042900D1B6E60521494220
:100E9000A942894104354942ED088844AEE6AA4298
:100EA00000D950E68F4204D800D04CE6A84200D8C2
:100EB00049E60223AD185B429C4695429B415B424A
:100EC000E0449C46B44461443EE6814200D8F4E5E7
:100ED00002235B4298468019C144EFE5814200D865
:100EE000D3E502235B4298468019C444CEE540F224
:100EF0001E4C019A2C006244414695409140C440EA
:100F00006A1E9541424621432943C2404B0700D106
:100F100051E70F200840042800D046E74BE73D008A
:100F2000604500D05DE6914200D05AE65BE640F2B3
:100F3000FF3C019A6244002A00DC0CE701210025F5
:100F400088445BE6614615E6250023E65507520214
:100F5000140BC90800220D4356E5540094429241F7
:100F600052429619023D22008019D9E78024434657
:100F700024031C432403240BEAE68A42EDD33D00FC
:100F8000D1E7C04601F8FFFF0A0030B540F2FE3459
:100F9000530009030500090B00205B0DD20FA3428B
:100FA00005DD40F21D40834202DD0E4BD01830BDFE
:100FB00080204003014340F23340C01A1F2809DD5E
:100FC00040F21340C31AD9400B005842002AEED118
:100FD0001800ECE7044CC540A446634499400B005C
:100FE0002B43F2E7FFFFFF7FEDFBFFFF70B5C0B1C2
:100FF000C317C5185D40C40F280000F027F840F261
:101000001E431B1A0A2817DC02002E0015329640D8
:101010000B22101AC54040F2FF712D032D0B0B401F
:1010200003E000240023002500261B052B43E407D2
:1010300023433000190070BD0B38854040F2FF712A
:101040002D0300262D0B0B40EFE7C0461C2101238A
:101050001B04984201D3000C10391B0A984201D39B
:10106000000A08391B09984201D30009043902A279
:10107000105C40187047C0460403020201010101E0
:10108000000000000000000041F20003C4F202036F
:101090001A6801210A431A600022013241F200035A
:1010A000C4F202031B689B0703D440F200539A4228
:1010B000F3D141F20003C4F202031B689B0700D482
:1010C000FEE742F20002C4F20202136807218B43DA
:1010D00005390B43136041F20403C4F202031A689A
:1010E0001A601A681A601A681A601A684FF6FF7157
:1010F000CFF2C2710A401A6019680022C0F60402D9
:101100000A431A6041F20003C4F202031968802204
:1011100052040A431A6041F20003C4F202031B683E
:101120009B01F8D541F20403C4F202031A680321BB
:101130008A431A601A6801390A431A6041F20403AB
:10114000C4F202031B681B07F8D5704710B5FFF700
:101150009BFF10BD10B541F20003C4F202031A68F0
:1011600001210A431A6041F20003C4F202031B6822
:101170009B07F8D541F20403C4F202031A680C215C
:10118000C0F6FF010A401A601A684FF6FF71C7F2F5
:10119000C2710A401A6041F20003C4F202031A68E5
:1011A0004FF6FF71CFF6F2610A401A6041F22C034C
:1011B000C4F202031A680F218A431A6041F2300315
:1011C000C4F202031A6810490A401A601A680F49EB
:1011D0000A401A601A68520052081A6041F2340339
:1011E000C4F202031A6801218A431A6041F208031B
:1011F000C4F2020300221A60FFF7A8FF802000213A
:10120000000500F06AFE10BDFCFEFFFFFFFFFEFFC1
:1012100030B583B00400C068216902F09FFB051C53
:10122000E3791BBB49F69A11C3F69961FEF78AFF71
:10123000A0B1237D013323756D46280002F079FBB0
:1012400023000C3306CD06C30123E371237A43B98F
:101250000021200001F038FB03B030BD00232375CE
:10126000EAE70121200001F02FFBF5E749F69A118A
:10127000C3F69961FEF766FF98B1237D0133DBB2B7
:101280002375012B09D0022B0DD123795BB10023EB
:10129000237101226271237505E0237100232375F8
:1012A00001E000232375FC218905281CFEF75EFF61
:1012B00018B10123A371002323756D46280002F0A5
:1012C00038FB23000C3306CD06C30023E371237AD9
:1012D00023B90121200001F0F7FABDE70021200029
:1012E00001F0F2FAB8E730B587B004000800110049
:1012F0002372D3B901330293019300230093033384
:101300000200200001F08EFB41F21122C0F6000223
:101310002100200001F0F0F904AD280002F009FBE3
:101320000C340CCD0CC407B030BD02230293002353
:101330000193009303330200200001F073FBE3E705
:101340000300807900229A717047F0B5C64600B557
:1013500088B0040043F20001C4F201011023059398
:10136000002504950395F133FF33029340F2007397
:101370000193009540F20413002201F0FBFC2600CB
:10138000143640F20047C4F6000740F20308434613
:10139000029301950095023B20223900300001F0B4
:1013A000CDFC300001F0E2FC0C3E43460293019577
:1013B0000095023B08223900300001F0BFFC3000EC
:1013C00001F0D0FC210050312000303040F20022EA
:1013D00002F02BFA40F25023E11820003C3040F29A
:1013E000002202F022FA642002F0EFFA27236A4674
:1013F000137758335377300001F0B8FC022306AA64
:1014000007A9200001F0B4FD300001F0ABFC03207F
:1014100002F0DBFA08B080BCB846F0BDF0B5C646B5
:1014200000B584B0040005001435280001F09EFCCE
:10143000201D002101F041FF40F25943E35C53B904
:1014400040F25A43E35CDBB9280001F08BFC04B0A6
:1014500080BCB846F0BD25236A4613722533E35C91
:10146000537226000836300001F080FC02236A46E1
:1014700002A9200001F07CFD300001F073FCDFE7E1
:1014800040F25B43E25C4A23E25402AF203B3B70F4
:1014900021004B3140F248084346E25C0920684491
:1014A00002F076FC26000836300001F05FFC43466F
:1014B000E35C01336A463900200001F059FD300039
:1014C00001F050FC40F25A430022E254BCE7F0B570
:1014D000C64600B590B0040040F21408804440466F
:1014E00001F044FC08AD07232B7000236B7026002D
:1014F0000836300001F03AFC02236A462900200039
:1015000001F036FD300001F02DFC6B465F7827239B
:101510002B706F70300001F029FC02236A4629000D
:10152000200001F025FD300001F01CFC60233B424F
:1015300002D0523B3B4203D010B080BCB846F0BD55
:10154000523320212B709F336A4601315218137099
:10155000300001F00BFC02236A462900200001F054
:1015600007FD300001F0FEFB6B465B7840F2504512
:101570006355300001F0FAFB6121200001F0E0FC2E
:10158000635D6A4608A9200001F0F2FC300001F01A
:10159000E9FB6B461B780F2B40D0F02B00D1B5E058
:1015A0001BB1404601F0DEFBC6E740F25043E25C6F
:1015B000013A92B2200030306B46591C02F03BF9E0
:1015C00008ADE2232B7000276F70300001F0CEFBD6
:1015D00002236A462900200001F0CAFC300001F015
:1015E000C1FB2F7020003C301F222121694402F0F2
:1015F00045F940F25147E055300001F0B7FBA82112
:10160000200001F09DFCE35D01336A4629002000C3
:1016100001F0AEFC300001F0A5FBC2E740F25943F7
:10162000E35CEBBB6B465B7840F25842A35408ADD9
:1016300025222A706B70300001F098FB02236A4665
:101640002900200001F094FC300001F08BFBE22324
:101650002B7000236B70300001F088FB02236A4678
:101660002900200001F084FC300001F07BFBA8235E
:101670002B70993B6B70300001F078FB02236A46B7
:101680002900200001F074FC300001F06BFB40F2F7
:1016900059430122E254201D012101F00EFE80E792
:1016A00040F25843E25C4A23E254002740F2594397
:1016B000E75408ADE2232B706F70300001F056FB49
:1016C00002236A462900200001F052FC300001F09C
:1016D00049FB2F7020003C301F222121694402F079
:1016E000CDF840F25147E055300001F03FFBA82112
:1016F000200001F025FCE35D01336A46290020004B
:1017000001F036FC300001F02DFB4AE740F25A436D
:10171000E35C002B00D144E720004B304823E25C1F
:101720006B46591C02F034FB08ADA8232B704833DC
:101730006B7040F25B43E35CAB70300001F016FB72
:1017400003236A462900200001F012FC300001F05A
:1017500009FB043441F27071200001F0A8FD41F250
:101760007071200001F0A6FD0121200001F0A5FD0F
:1017700017E7F0B5DE4657464E464546E0B58BB016
:101780000500FFF7E2FD2C002C34902240F2010806
:1017900043460293019300270097D20501212000C0
:1017A00001F040F941F2CF42C0F6000229002000CA
:1017B00000F0A2FF40F20041C4F6000128002030F2
:1017C00040F2030B5B46029301970097023B012214
:1017D00001F0B4FA2C1D40F20041C4F2000104975C
:1017E00003971023029301970E3B009340F2E833D6
:1017F0002122200001F0E5FB41F21D42C0F600026B
:101800002900200001F039FE40F21409A94448469D
:1018100001F0ACFA08AC2A23237029004B3140F2C6
:10182000480A5346EA5C273B6B44180002F0B0FAC2
:101830002E000836300001F099FA5346EB5C013374
:1018400006AA2100280001F093FB300001F08AFA7B
:10185000312323705346EB5C6370300001F086FA4D
:10186000022306AA2100280001F082FB300001F0CB
:1018700079FA2223237043466370300001F076FA30
:10188000022306AA2100280001F072FB300001F0BB
:1018900069FA3D232370373B6370300001F066FA2C
:1018A000022306AA2100280001F062FB300001F0AB
:1018B00059FA232323705B466370300001F056FA17
:1018C000022306AA2100280001F052FB300001F09B
:1018D00049FA3C23237043466370300001F046FA16
:1018E000022306AA2100280001F042FB300001F08B
:1018F00039FA252323702533EB5C6370300001F047
:1019000035FA022306AA2100280001F031FB30003D
:1019100001F028FA262323701F3B6370300001F08A
:1019200025FA022306AA2100280001F021FB30003D
:1019300001F018FA20232370113B6370300001F08E
:1019400015FA022306AA2100280001F011FB30003D
:1019500001F008FA2723237058336370300001F038
:1019600005FA022306AA2100280001F001FB30003D
:1019700001F0F8F9E22323706770300001F0F6F906
:10198000022306AA2100280001F0F2FA300001F03B
:10199000E9F928003C301F2221236B44190001F093
:1019A0006DFF2070300001F0E1F9A821280001F05E
:1019B000C7FA2378013306AA2100280001F0D8FADB
:1019C000300001F0CFF9484601F0CCF90BB0F0BC83
:1019D000BB46B246A946A046F0BDF0B5D6464F4636
:1019E0004646C0B588B0050040F24B08804440F23E
:1019F00048094B46C25C4146684602F0C9F92F00CF
:101A00001437380001F0B2F904AC2A23237040F2F5
:101A10005C43E9184B46EA5C1120684402F0B8F9CF
:101A20002E000836300001F0A1F94B46EB5C013383
:101A300002AA2100280001F09BFA300001F092F97F
:101A4000312323704B46EB5C6370300001F08EF95C
:101A5000022302AA2100280001F08AFA300001F0D6
:101A600081F92223237040F201094B466370300054
:101A700001F07CF9022302AA2100280001F078FA83
:101A8000300001F06FF93D232370373B6370300065
:101A900001F06CF9022302AA2100280001F068FA83
:101AA000300001F05FF923232370203B6370300086
:101AB00001F05CF9022302AA2100280001F058FA83
:101AC000300001F04FF93C2323704B466370300027
:101AD00001F04CF9022302AA2100280001F048FA83
:101AE000300001F03FF906AB9A46180001F021FFE3
:101AF00053460620185EFFF779FA45F61002CBF23E
:101B000039424BF2C863C4F22F03FEF721FFFFF7FF
:101B10003BFA4000C0B240F25B4A5346E8542523EA
:101B200023706070300001F021F9022302AA210025
:101B3000280001F01DFA300001F014F9262323706B
:101B40001F3B6370300001F011F9022302AA21004B
:101B5000280001F00DFA300001F004F92023237071
:101B6000113B6370300001F001F9022302AA210049
:101B7000280001F0FDF9300001F0F4F8E2232370B1
:101B800000236370300001F0F1F8022302AA210063
:101B9000280001F0EDF9300001F0E4F8A8232370EB
:101BA000483363705346EB5CA370300001F0DEF8FD
:101BB000032302AA2100280001F0DAF9300001F025
:101BC000D1F840F25A434A46EA54380001F0CAF8C4
:101BD000002441F26F739C4209D80A2001F0F5FEFF
:101BE00040F25A43EB5CCBB30134A4B2F1E73800C6
:101BF00001F0BCF804AC252323702533EB5C637043
:101C0000300001F0B3F8022302AA2100280001F0FD
:101C1000AFF9300001F0A6F82A23237040F24809FA
:101C20004B46EA5C41461120684402F0B1F83000AE
:101C300001F09CF84B46EB5C013302AA210028001E
:101C400001F096F9300001F08DF840F25A4300227D
:101C5000EA54380001F086F8002000E0012008B0C6
:101C6000E0BCBA46B146A846F0BD30B540F20043EC
:101C7000C4F201031C68C54384431C6040F2044362
:101C8000C4F201031C6884431C6040F20843C4F2A0
:101C900001031C6884431C6040F20C43C4F201033E
:101CA0001C6884431C6039B101290DD0012A22D05F
:101CB000022A2FD082B130BD40F20043C4F20103AA
:101CC000196801431960F1E740F20443C4F20103CB
:101CD000196801431960E9E740F20843C4F20103BF
:101CE0001A681043186040F20C43C4F201031A68EA
:101CF00015401D60DFE740F20843C4F201031A6893
:101D000015401D6040F20C43C4F201031A681043F1
:101D10001860D0E740F20843C4F201031A68024396
:101D20001A6040F20C43C4F201031A6810431860B1
:101D3000C1E740F21443C4F201031A6840F20043C1
:101D4000C4F201031B680340104202D01BB90020FB
:101D500000E0002070470120FCE740F21443C4F289
:101D6000010318607047F0B5CE46474680B58446FB
:101D70009146180063461F68DE68002401E00134C4
:101D8000A4B20F2C0FD80125A5402842F7D063003C
:101D900003259D40AF430A009A401743AE434A468D
:101DA0009A401643EBE763461F60DE60C0BCB9464D
:101DB000B046F0BD70B5012905D041689943416036
:101DC0008568002105E0416819434160F8E7013169
:101DD00089B20F290BD801248C402342F7D04E0042
:101DE0000324B440A5431400B4402543EFE78560C5
:101DF00070BDF0B5066A456A002301E001339BB26D
:101E0000072B0BD801249C402242F7D09F000F24BF
:101E1000BC40A6430C00BC402643EFE7082301E08A
:101E200001339BB20F2B0DD801249C402242F7D0E6
:101E30001C00083CA4000F27A740BD430F00A7408B
:101E40003D43EDE706624562F0BDF0B5CE4647463C
:101E500080B543B2002B27DB9A084EF20017CEF272
:101E60000007C0329200D45903250540ED0040F22E
:101E7000FF094E46AE40B443260089014C460C4053
:101E8000AC403443D451002B0ADB1F2210405B09C5
:101E90001E3A82404EF20011CEF200019B005A50D1
:101EA000C0BCB946B046F0BD0F220240083A9208C5
:101EB000063292004EF6005CCEF2000C6244566888
:101EC00003250540ED00FF242700AF40BE438901F4
:101ED0000C40AC4034435460D5E74FF68073C1F6F4
:101EE000FF73194001434EF60053CEF20003996090
:101EF0007047830941F2000CC4F2020C63441A6873
:101F00001F2108401E3981400A431A607047830927
:101F100041F2000CC4F2020C63441A681F2108400D
:101F20001E3981400A431A607047830941F2000C50
:101F3000C4F2020C63441A681F2108401E39814014
:101F40008A431A607047000070B588B0020004A987
:101F500044F20C03C0F600031C0061CC61C1080010
:101F60002168016002A81900103130C930C06946EB
:101F7000103311CB11C141F20403C4F202031968FA
:101F8000890803230B40022B24D041F20020C0F229
:101F90007A0041F20404C4F20204216809090F2303
:101FA0000B4004A9CB5C0500DD4023681B0A072118
:101FB0000B4002AEF35C2E00DE402368DB0A1940C2
:101FC0006B465B5C2900D940052A34D892005D4BF2
:101FD0009B589F4641F20403C4F202031968890C1E
:101FE0000F2008401B681B0117D5113041F2040374
:101FF000C4F202031B68DB0315D541F22C03C4F2C3
:10200000020319680F230B40013341F20021C0F293
:102010007A01B1FBF3F35843BBE70F2801D002303C
:10202000E4E71020E2E74101091A8B015B1ADB00AB
:1020300018180002ADE7002000E0280008B070BDCD
:102040003000FBE70800F9E741F23003C4F2020375
:102050001B68DB050BD441F23003C4F202031B689A
:10206000DB0360D449F68070C0F2D500E6E741F2A8
:102070000403C4F202031A68920B0323134041F2D3
:102080003002C4F202021268D20F022B1AD007D813
:102090006BB1012B02D18AB98808CFE70020CDE7C8
:1020A000032B02D1BAB9C808C8E70020C6E70AB9AD
:1020B0004808C3E70320B5FBF0F0BFE70520B5FBF8
:1020C000F0F0BBE71AB90620B1FBF0F0B6E7072045
:1020D000B5FBF0F0B2E70920B5FBF0F0AEE741F256
:1020E0003003C4F202031B689B0721D041F2300386
:1020F000C4F202031A6803231340012B9ED041F25D
:102100003003C4F202031A6803231340022B11D0D8
:1021100041F23003C4F202031A6803231340032B75
:102120000BD000208AE743F60070C0F2AB1085E7C1
:10213000080083E748F2000080E741F20020C0F287
:102140007A007BE7F440000810B543F60003C4F2C0
:10215000000398420ED043F20003C4F201039842F8
:1021600007D140F20C30FFF7D2FE40F20C30FFF7FF
:10217000DCFE10BD40F20E40FFF7C9FE40F20E40FB
:10218000FFF7D3FEF5E7000030B5046843F24003E3
:102190001C40026843F640031A4045684FF2FF03B3
:1021A0002B4043F20005C4F20105A84215D00C688B
:1021B00022434C682243CC6822430C6922434C6979
:1021C00022438C69224302608A6813434360C369D7
:1021D000104A1340C361012030BD0B6823434A6895
:1021E0001343CA6813430A6913434A6913438C694A
:1021F0001C438A6840F200739A4203D040F6007391
:102200009A4205D140F60003134023430360DEE702
:102210000020E1E7FFF7FFFF03684022134303605C
:10222000704743F20003C4F20103984204D04368AC
:10223000DB0403D5017300E0C1607047C160FCE7B7
:1022400043F20003C4F20103984204D04368DB0464
:1022500004D5007B7047C06880B2FBE7C06880B2DD
:10226000F8E7836819420DD143F60003C4F2000376
:10227000984209D151B9836841F600021A4207D049
:10228000002000E0012070470020FCE70020FAE772
:102290000120F8E74268034B1A40426043680B4351
:1022A00043607047FFEFFFFF03230B409B000F22AB
:1022B0009A40D24398408908022923D00CD8B9B15A
:1022C00001291ED10C23C4F2010319680A401A60C7
:1022D0001A681043186014E0032912D11423C4F2C1
:1022E000010319680A401A601A681043186008E070
:1022F0000823C4F2010319680A401A601A681043DF
:10230000186070471023C4F2010319680A401A606C
:102310001A6810431860F4E710B542F60043C4F29F
:10232000010398424DD042F60043C4F201039842A3
:1023300023D841F20003C4F2000398424AD042F28B
:102340000003C4F20003984208D140F20840FFF7AE
:10235000DEFD40F20840FFF7E8FD3AE040F20043BE
:10236000C4F20003984234D140F20140FFF7CFFDA0
:1023700040F20140FFF7D9FD2BE044F20043C4F2E4
:10238000010398422FD044F60003C4F2010398429F
:1023900008D140F21230FFF7BAFD40F21230FFF7D9
:1023A000C4FD16E044F20003C4F20103984210D1C8
:1023B00040F21030FFF7ABFD40F21030FFF7B5FDF3
:1023C00007E040F20B30FFF7A2FD40F20B30FFF7C1
:1023D000ACFD10BD40F20440FFF799FD40F204400F
:1023E000FFF7A3FDF5E740F21130FFF790FD40F253
:1023F0001130FFF79AFDECE70B88836242F6004349
:10240000C4F20103984205D040F20043C4F2000335
:1024100098420BD1036870229343036003684A8893
:102420001343036003688A88134303608B68C362A5
:1024300042F60043C4F2010398421DD040F200432B
:10244000C4F20003984217D042F20003C4F2000322
:10245000984211D044F20003C4F2010398420BD019
:1024600044F20043C4F20103984205D044F600034D
:10247000C4F20103984207D10368134A1340036072
:102480000368CA881343036042F60043C4F20103A1
:10249000984211D044F20003C4F2010398420BD0D9
:1024A00044F20043C4F20103984205D044F600030D
:1024B000C4F20103984201D10B7B036343690122FB
:1024C000134343617047C046FFFCFFFFC3680B43E3
:1024D000C3607047C3680B400269114202D01BB948
:1024E000002000E0002070470120FCE7C9430161A3
:1024F000704710B544F20043C4F2000398420ED076
:1025000043F60003C4F20103984207D140F20E30B3
:10251000FFF7FDFC40F20E30FFF707FD10BD40F263
:102520001140FFF7F4FC40F21140FFF7FEFCF5E725
:1025300070B504000D0044F20043C4F20003984259
:1025400009D043F60003C4F20103984207D10520E5
:10255000FFF7FAFC04E00220FFF7F6FC00E00020A1
:1025600023681B040DD5400069084118B1FBF5F143
:102570004FF6F0730B404908072001401943E16012
:1025800070BD69080918B1FBF5F14FF6FF752940D8
:10259000E160F5E7026801239A4302600268034B99
:1025A0001A40026003680B4303607047FFF9FFFFA6
:1025B000026801239A4302600268034B1A400260DA
:1025C00003680B4303607047FFEFFFFF02680123BE
:1025D0009A4302604268034B1A40426043680B43CF
:1025E00043607047FFCFFFFF03680122134303607E
:1025F0007047026808239A43026003680B43036034
:102600007047026804239A43026003680B43036027
:10261000704740F2FF130B4083627047436A40F2F9
:10262000FF10184070470000026801239A430260BF
:102630008268034B1A40826083680B438360704753
:10264000FFFEFFFF026801239A4302608268034B8A
:102650001A40826083680B4383607047FFFDFFFF71
:102660008B091B181B681F221140CB40DB0701D5CB
:10267000012070470020FCE78B09181803681F220F
:1026800011401E3A8A4013430360704770B58A09AF
:1026900040F2FF3313401B181D681F2214000C402A
:1026A00001231E00A64035408C0D20180068090C3F
:1026B00011408B40034202D01DB9002000E00020F1
:1026C00070BD0120FCE7000043F20943C3F20F4351
:1026D000994208D0036A090C1F2211401E3A8A4011
:1026E000134303627047D0300368024A134003600B
:1026F000F8E7C046FF7FFFFF036840F20010834207
:1027000000D1B3E019D8202B07D8002B6BD0202B99
:1027100069D89B006B48C3589F46402B00D19AE074
:10272000802B60D140F28C43C2F200031A6040F269
:10273000CC43C2F20003196055E041F2000083422D
:1027400000D1A9E013D944F20000834200D1AEE0E9
:1027500048F2000083422DD140F2AC43C2F20003A4
:102760001A6040F2EC43C2F2000319603BE040F211
:102770000040834200D184E040F6000083420AD149
:1027800040F29C43C2F200031A6040F2DC43C2F202
:102790000003196027E040F20020834223D140F279
:1027A0009443C2F200031A6040F2D443C2F2000321
:1027B000196018E042F20000834214D140F2A443B1
:1027C000C2F200031A6040F2E443C2F2000319604F
:1027D00009E040F27043C2F200031A6040F2B043D5
:1027E000C2F200031960704740F27443C2F2000362
:1027F0001A6040F2B443C2F200031960F3E740F2FA
:102800007843C2F200031A6040F2B843C2F20003F8
:102810001960E8E740F27C43C2F200031A6040F21C
:10282000BC43C2F200031960DDE740F28043C2F20C
:1028300000031A6040F2C043C2F200031960D2E7FD
:1028400040F28443C2F200031A6040F2C443C2F271
:1028500000031960C7E740F28843C2F200031A6020
:1028600040F2C843C2F200031960BCE740F2904353
:10287000C2F200031A6040F2D043C2F200031960B2
:10288000B1E740F29843C2F200031A6040F2D84325
:10289000C2F200031960A6E740F2A043C2F20003AF
:1028A0001A6040F2E043C2F2000319609BE740F275
:1028B000A843C2F200031A6040F2E843C2F20003E8
:1028C000196090E70C410008012914D0022923D097
:1028D00001B1704740F20843C4F201031A6801686D
:1028E0000A431A6040F20C43C4F201031A680168FB
:1028F0008A431A60EDE740F20843C4F201031A6804
:1029000001688A431A6040F20C43C4F201031A685A
:1029100001680A431A60DCE740F20843C4F201038D
:102920001A6801680A431A6040F20C43C4F20103BA
:102930001A6801680A431A60CBE740F60003C4F640
:10294000000399420FD041F20043C4F600039942BC
:102950000BD040F20043C4F60003994201D000209E
:1029600070470120FCE70220FAE70520F8E70000A5
:1029700040F2001399423FD011D8202909D80229EA
:102980003CD3202903D88900254B5B589F46002063
:1029900004E0402936D0802936D10720704741F223
:1029A0000003994232D009D944F20003994233D04E
:1029B00048F20003994211D10F20EFE740F20043A3
:1029C000994225D040F60003994201D10B20E5E75A
:1029D00040F2002399421DD10920DFE742F20003B3
:1029E00099421BD10D20D9E70220D7E70320D5E774
:1029F0000420D3E70520D1E70820CFE70020CDE76A
:102A00000120CBE70620C9E70020C7E70C20C5E777
:102A10000A20C3E70020C1E70E20BFE70020BDE782
:102A200090410008F8B5CE46474680B505000C0039
:102A300017001E0008AB1B78984609AB1B78994617
:102A4000016048F20003994200D89AB94A464146CB
:102A50002000FFF70AF9022C20D9082C23D83100D6
:102A60000620FFF7F2F92000FFF777F9C0BCB9465E
:102A7000B046F8BD0B000A9A00213800FFF773F941
:102A800039002800FFF759FF070021002800FFF751
:102A90006FFF01003800FFF707FCD7E73100052082
:102AA000FFF7D3F9DFE731000720FFF7CEF9DAE7C8
:102AB00010B50120FFF73DF970B140F27043C2F24A
:102AC00000031A682AB140F2B043C2F2000318684A
:102AD00090470120FFF741F90220FFF72AF970B172
:102AE00040F27443C2F200031A682AB140F2B443C0
:102AF000C2F20003186890470220FFF72EF910BDBC
:102B000010B50420FFF715F970B140F27843C2F216
:102B100000031A6842B140F2B843C2F200031868D9
:102B200090470420FFF719F90820FFF702F970B168
:102B300040F27C43C2F200031A6842B140F2BC4347
:102B4000C2F20003186890470820FFF706F910BD8D
:102B500010B51020FFF7EDF870B140F28043C2F2DB
:102B600000031A6842B140F2C043C2F20003186881
:102B700090471020FFF7F1F82020FFF7DAF870B146
:102B800040F28443C2F200031A6842B140F2C443E7
:102B9000C2F20003186890472020FFF7DEF84020BB
:102BA000FFF7C7F870B140F28843C2F200031A6819
:102BB00042B140F2C843C2F2000318689047402077
:102BC000FFF7CBF88020FFF7B4F870B140F28C43E8
:102BD000C2F200031A6842B140F2CC43C2F20003D1
:102BE000186890478020FFF7B8F840F20010FFF710
:102BF000A0F878B140F29043C2F200031A684AB1DB
:102C000040F2D043C2F200031868904740F200102F
:102C1000FFF7A3F840F20020FFF78BF878B140F2FD
:102C20009443C2F200031A684AB140F2D443C2F29C
:102C300000031868904740F20020FFF78EF840F23A
:102C40000040FFF776F878B140F29843C2F20003F3
:102C50001A684AB140F2D843C2F20003186890479C
:102C600040F20040FFF779F840F60000FFF761F806
:102C700078B140F29C43C2F200031A684AB140F2B4
:102C8000DC43C2F200031868904740F60000FFF7EB
:102C900064F841F20000FFF74CF878B140F2A0432D
:102CA000C2F200031A684AB140F2E043C2F20003E4
:102CB0001868904741F20000FFF74FF842F2000019
:102CC000FFF737F878B140F2A443C2F200031A6864
:102CD0004AB140F2E443C2F200031868904742F25E
:102CE0000000FFF73AF844F20000FFF722F878B14D
:102CF00040F2A843C2F200031A684AB140F2E84326
:102D0000C2F200031868904744F20000FFF725F86C
:102D100048F20000FFF70DF878B140F2AC43C2F280
:102D200000031A684AB140F2EC43C2F2000318688B
:102D3000904748F20000FFF710F810BD70B505008D
:102D400008001400190004AB04CB1E786860AC6066
:102D50002300FFF708F868682300069A3100FFF7A0
:102D600029F870BD436882689A6170474368826839
:102D70009A627047F0B589B0040015001E0001602A
:102D800043F60003C4F20003994200D184E043F209
:102D90000003C4F20103994208D140F20C60FFF72E
:102DA000A8F8012D3AD0022D55D0EDB12068FFF7DB
:102DB000CBF901960E9B02930F9B0393109B0493F8
:102DC000119B0593129B0693139B079301A92068FF
:102DD000FFF7DAF941F200012068FFF75BFA20689B
:102DE000FFF71AFA09B0F0BD9025ED05E0220021A9
:102DF0002800FEF7FEFF2023012202212800FEF713
:102E0000B2FFC023002202212800FEF7ACFFE0231E
:102E1000032200212800FEF7CDFFC7E740F200455E
:102E2000C4F60005382200212800FEF7E2FF08233F
:102E3000012202212800FEF796FF30230022022102
:102E40002800FEF790FF9020382303220021C005C0
:102E5000FEF7B0FFAAE740F20045C4F600054EF2C7
:102E6000000200212800FEF7C4FF42F20003012205
:102E700002212800FEF777FF4CF200030022022116
:102E80002800FEF770FF90204EF20003032200217D
:102E9000C005FEF78FFF89E740F20E70FFF729F8B3
:102EA00015B3012D00D081E740F20045C4F60005BE
:102EB0004EF2000200212800FEF79BFF42F20003C1
:102EC000012202212800FEF74EFF4CF200030022EF
:102ED00002212800FEF747FF4EF2000303220021E3
:102EE0002800FEF767FF61E740F20045C4F60005E1
:102EF000022200212800FEF77CFF9027FF0546F202
:102F0000000200213800FEF774FF02230122022193
:102F10002800FEF728FF46F20003002202213800B5
:102F2000FEF721FF0223032200212800FEF742FFC3
:102F300046F20003032200213800FEF73BFF35E78D
:102F400070B504000D0002212068FFF78AF90028FF
:102F5000F9D0A9B22068FFF764F901212068FFF7D2
:102F600080F90028F9D02068FFF76AF9C0B270BD77
:102F7000F8B5CE46474680B50400884617001E00C7
:102F80000025B54219DA02212068FFF76AF9002806
:102F9000F9D0A9464346595D2068FFF742F901215F
:102FA0002068FFF75EF90028F9D02068FFF748F99C
:102FB0004B46F8540135EDB2E3E7C0BCB946B04624
:102FC000F8BDF0B5DE4657464E464546E0B585B0FD
:102FD0000500080016001C000EAB1F780FAB1B8805
:102FE0009B4610AB1B889A4611AB1B88994612ABC7
:102FF0001B7898462960FFF78FF96B465A465A802E
:1030000052469A80631E02936B464A46DA804246D5
:103010001A73296842F60043C4F20103994200D1B1
:10302000CAE042F60043C4F20103994263D841F278
:103030000003C4F20003994200D1EAE042F2000327
:10304000C4F20003994227D16643760040F204039C
:10305000C2F200031C68B4FBF6F4013C6B461C8012
:1030600040F20870FEF745FF28686946FFF7C4F98B
:10307000FF2F00D1B5E039001320FEF7E6FE42F243
:103080000004C4F2000401212000FFF72FFA0121FF
:103090002000FFF71BFAA4E040F20043C4F2000353
:1030A000994200D09DE06643760040F20403C2F2EC
:1030B00000031C68B4FBF6F4013C6B461C8040F234
:1030C0000170FEF716FF28686946FFF795F9FF2F94
:1030D00000D186E039001020FEF7B7FE40F2004430
:1030E000C4F2000401212000FFF700FA01212000B2
:1030F000FFF7ECF975E044F20043C4F20103994292
:1031000000D1ADE044F60003C4F20103994226D198
:103110006643760040F20403C2F200031C68B4FB6D
:10312000F6F6013E6B461E8040F21260FEF7E1FEAD
:1031300028686946FFF760F9FF2F52D03900162042
:10314000FEF783FE44F60004C4F2010401212000CE
:10315000FFF7CCF901212000FFF7B8F941E044F274
:103160000003C4F2010399423BD16643760040F26A
:103170000403C2F200031C68B4FBF6F4013C6B4686
:103180001C8040F21060FEF7B4FE28686946FFF725
:1031900033F9FF2F25D039001420FEF756FE44F2F4
:1031A0000004C4F2010401212000FFF79FF901216E
:1031B0002000FFF78BF914E0744340F20401C2F2DF
:1031C00000010968B1FBF4F4013C6B461C8040F23D
:1031D0000B60FEF78EFE28686946FFF70DF9FF2F9A
:1031E00006D105B0F0BCBB46B246A946A046F0BD2C
:1031F00039000D20FEF729FE42F60044C4F2010416
:1032000001212000FFF772F901212000FFF75EF98C
:10321000E7E76643760040F20403C2F200031C684D
:10322000B4FBF6F4013C6B461C8040F20470FEF7E0
:1032300060FE28686946FFF7DFF8FF2FD1D039001C
:103240001120FEF702FE41F20004C4F20004012145
:103250002000FFF74BF901212000FFF737F9C0E705
:103260006643760040F20403C2F200031C68B4FB1C
:10327000F6F4013C6B461C8040F21160FEF739FE0B
:1032800028686946FFF7B8F8FF2FAAD03900152043
:10329000FEF7DBFD44F20044C4F2010401212000EA
:1032A000FFF724F901212000FFF710F999E70368DF
:1032B000D962704703685962704731B1012903D15F
:1032C000026813680B43136070470268136801219A
:1032D0008B431360F8E710B542F60040C4F20100DA
:1032E0000121FFF7F7F8012800D010BD40F20C5380
:1032F000C2F20003186840F2F043C2F200031B68F8
:10330000984742F60040C4F201000121FFF7EEF8B1
:10331000EBE710B540F20040C4F200000121FFF7D6
:10332000D9F8012800D010BD40F22053C2F20003AA
:10333000186840F2F443C2F200031B68984740F259
:103340000040C4F200000121FFF7D0F8EBE710B510
:1033500041F20000C4F200000121FFF7BBF8012890
:1033600000D010BD40F22453C2F20003186840F2AE
:10337000F843C2F200031B68984741F20000C4F210
:1033800000000121FFF7B2F8EBE710B542F20000B0
:10339000C4F200000121FFF79DF8012800D010BD04
:1033A00040F21053C2F20003186840F2FC43C2F22C
:1033B00000031B68984742F20000C4F2000001219C
:1033C000FFF794F8EBE710B544F20000C4F20100F7
:1033D0000121FFF77FF8012800D010BD40F21453FF
:1033E000C2F20003186840F20053C2F200031B68E7
:1033F000984744F20000C4F201000121FFF776F87B
:10340000EBE710B544F20040C4F201000121FFF7E0
:1034100061F8012800D010BD40F21853C2F2000339
:10342000186840F20453C2F200031B68984744F244
:103430000040C4F201000121FFF758F8EBE710B596
:1034400044F60000C4F201000121FFF743F801280F
:1034500000D010BD40F21C53C2F20003186840F2C5
:103460000853C2F200031B68984744F60000C4F2F8
:1034700001000121FFF73AF8EBE7036842F600404C
:10348000C4F20100834255D042F60040C4F201006C
:10349000834227D841F20000C4F20000834254D096
:1034A00042F20000C4F2000083420AD140F2FC4321
:1034B000C2F200031A6040F21053C2F20003196016
:1034C00042E040F20040C4F2000083423CD140F2AE
:1034D000F443C2F200031A6040F22053C2F2000328
:1034E000196031E044F20040C4F20100834237D059
:1034F00044F60000C4F2010083420AD140F20853AE
:10350000C2F200031A6040F21C53C2F200031960B9
:103510001AE044F20000C4F20100834214D140F2E8
:103520000053C2F200031A6040F21453C2F20003C7
:10353000196009E040F2F043C2F200031A6040F261
:103540000C53C2F200031960704740F2F843C2F214
:1035500000031A6040F22453C2F200031960F3E73B
:1035600040F20453C2F200031A6040F21853C2F250
:1035700000031960E8E7F0B5C64600B50C00160078
:103580001D000DAB1F880EAB1B789846016044F2FE
:103590000043C4F20003994255D043F60003C4F23D
:1035A000010399425BD140F20E60FEF7A2FC012DAF
:1035B0001BD0022D30D025B141461B20FEF745FC23
:1035C0004DE09025ED050C2201212800FEF711FCAD
:1035D0000C23012202212800FEF7C5FB0C23032245
:1035E00000212800FEF7E6FBE6E79025ED0540F216
:1035F000006201212800FEF7FCFB40F2006301227B
:1036000002212800FEF7AFFB40F2006303220021F5
:103610002800FEF7CFFBCFE79025ED054CF2000226
:1036200001212800FEF7E5FB4CF2000301220221F4
:103630002800FEF798FB4CF200030322002128002B
:10364000FEF7B8FBB8E740F21170FEF752FC002D10
:1036500032D0012D44D041461C20FEF7F6FB20005D
:10366000FEF747FF31002000FEF762FF0021200037
:10367000FEF79EFF07992000FEF7A8FF089920009B
:10368000FEF788FF09992000FEF7CEFF0A99200077
:10369000FEF7D8FF0B992000FEF7ABFF0C99200036
:1036A000FEF7AFFF39002000FEF7E6FF2000FEF72F
:1036B0009BFF80BCB846F0BD9025ED050C22012192
:1036C0002800FEF796FB0C23012202212800FEF7BA
:1036D0004AFB0C23032200212800FEF76BFBBAE70C
:1036E0009025ED054CF2000201212800FEF781FB38
:1036F0004CF20003012202212800FEF734FB4CF2B9
:103700000003032200212800FEF754FBA3E77047C3
:10371000F8B504000F0016000025B5420DD240F2A6
:1037200007712068FEF79CFF0028F8D0795D2068BB
:10373000FEF76FFF0135ADB2EFE7F8BD10B505211B
:10374000C0F2057143F60000C4F20100FEF79EFFCF
:1037500090B140F22853C2F200031C6864B143F6F2
:103760000000C4F20100FEF759FF40F23053C2F2EC
:1037700000031968C0B2A0470521C0F2057143F6E5
:103780000000C4F20100FEF79FFF10BD70B50521D7
:10379000C0F2057144F20040C4F20000FEF776FF6B
:1037A000D0B140F22C53C2F200031C68A4B144F221
:1037B0000045C4F200052800FEF730FF40F2345304
:1037C000C2F200031968C0B2A0470521C0F205711A
:1037D0002800FEF779FF13E00521C0F2037144F2DF
:1037E0000040C4F20000FEF751FF50B90521C0F2BD
:1037F000037144F20040C4F20000FEF747FF50B9E5
:1038000070BD0521C0F2037144F20040C4F2000013
:10381000FEF75AFFEAE70521C0F2037144F20040C7
:10382000C4F20000FEF750FFEAE781600280002347
:1038300043808380704770B50300002005E09E88B8
:103840005C88A64211D0013080B2904215D29C888B
:103850000D5C9E6835559C880134A4B29C801D88FF
:10386000AC42ECD300249C80E9E70134A4B25C8034
:10387000A542E8D800245C80E5E770BD70B504007F
:103880001000002501E00135ADB2854211D26388F8
:10389000A688B3420CD0A268D35C4B556388013331
:1038A0009BB263802688B342EDD300236380EAE7AE
:1038B000280070BD40F20403C2F200031B6840F20E
:1038C000E832B3FBF2F3013B80225204934210D260
:1038D0004EF21002CEF2000253604EF60051CEF2CC
:1038E00000010B6A1B021B0A0B6200239360073363
:1038F000136040F23853C2F2000300221A609A802B
:10390000DA80704740F23852C2F200020421535E5E
:1039100001331BB2938040F2E732934208DD40F25C
:103920003853C2F2000300229A801A6801321A60EA
:10393000704710B54EF21003CEF200039A686C2364
:10394000B2FBF3F340F2E832D21A40F23853C2F23B
:103950000003DA80020012CB12C210BD30B585B070
:103960000090019140F23853C2F200031A68151A10
:103970000420185E6B4604229B5EC01AFCF75AFFB7
:103980000021C4F27A41FCF79FFD041C2800FCF7DB
:103990009DFF211CFCF7FEFB041C02AD2800FFF775
:1039A000C8FF0623E85E6B4606229B5EC01AFCF742
:1039B00041FF42F20041C4F67411FCF785FD011C81
:1039C000201CFCF7E7FB05B030BD30B583B0050027
:1039D0006846FFF7AEFF00980199FFF7BFFF041C90
:1039E0002800FCF727FF0021C4F27A41FCF76CFDA8
:1039F000011C201CFCF7B0FB0028ECD103B030BD4B
:103A00007047FEE77047704710B540F21150FEF75F
:103A100070FA40F21250FEF76CFA40F21350FEF7C3
:103A200068FA40F21650FEF764FA62B6FFF742FFFA
:103A300000F042F8002010BD10B5012800D010BDE4
:103A40004FF6FF739942FAD140F20002C2F200022F
:103A500043F20F71C0F6000140F2AC50C2F2000018
:103A600000F036F9EBE710B504000123037203758B
:103A70002022835404332832835401328354453343
:103A80001132C25444F22401C0F600014B30553AC1
:103A900000F02EF92000503040F20022002100F00A
:103AA000CDF940F25023E01840F20022002100F04E
:103AB000C5F9200010BD0000F0B5C64600B56D4C3C
:103AC000A544FFA8C430FFF7CEFFFFABC4330024EA
:103AD00040F270429C54012604329E542C329C5475
:103AE00004329C5017AD2E722E752023EE5440F2F6
:103AF000050828334246EA540133EA54013355326B
:103B0000EA5444F22407C0F60007553A3900A720CA
:103B1000684400F0EDF840F2002200212BA800F0EC
:103B20008DF940F200220021ABA800F087F940F2A5
:103B30005043EC540133EC540333EC500533EC5454
:103B40000133EC54FFABBC33BA681A603A7B1A718C
:103B500014AB1E7011AB1E700BAB1C715C719C71B1
:103B6000DC711C7540F20041C4F60001032502958A
:103B7000019400940123012214A8FFF7DFF8E12249
:103B800044F20041C4F2000140F2AC50C2F2000025
:103B9000089543460793013B069304330593049429
:103BA000039402940194009400235202FFF7E3FC73
:103BB0009021FF231022C9050BA8FDF794FB17A83D
:103BC000FDF7D7FD12E014A8FFF7D0F817A8FDF70E
:103BD00004FF13E0130000221A803AE040F20802CA
:103BE000C2F200025C21D1543033537714A8FFF79E
:103BF000B9F80BA8FDF7A4FB0028E4D140F2445427
:103C0000C2F200046422210023A8FFF737FE02005D
:103C100040F24053C2F20003188040F2AC50C2F2AE
:103C200000002100FFF774FD0520FFF7CEFE40F2F3
:103C30000801C2F200011F2226A8FFF7FCFD40F296
:103C4000A852C2F20002138801339BB213801E2BCC
:103C5000C0D040F2A853C2F200031B88002BBDD095
:103C600040F20802C2F200025C21D154013B2C391F
:103C7000D154BBE798F6FFFF10B54FF6FF71012056
:103C8000FFF7DAFE10BD0000002103E00A4B5B588D
:103C90004350043109480A4B42189A42F6D3094A64
:103CA00002E0002313600432074B9A42F9D3FDF778
:103CB00051FAFFF7A9FE70473042000800000020CB
:103CC0005404002054040020B4050020FEE7000046
:103CD000030010B50800190000F002F810BDC0463E
:103CE00010B513000A000100022000F0F7F810BD23
:103CF000F0B5C64600B50F2A40D903270D003E0097
:103D000005430C0003002E402F423CD11500103D0E
:103D10002D09A8462D01AC46844427681D001F606C
:103D200067685F60A7689F60E7681034DF601033E2
:103D30006545F2D145460F230C2401352D01491963
:103D400013404519144221D08C59AC5104369C1BA8
:103D5000032CF9D8043B9B0801339B00ED18C918CC
:103D600003231A40561E32B10023CC5C1A00EC54D7
:103D700001339642F9D180BCB846F0BD0500561E0D
:103D8000002AF1D1F7E70500561EEDE71A00F6E725
:103D9000F0B5884209D98B18984206D2531E1AB141
:103DA000CA5CC254013BFBD2F0BD0F2A0BD8050000
:103DB000561E002AF8D00023CC5C1A00EC540133C4
:103DC0009642F9D1F0E703270D003E0005430C00B1
:103DD00003002E402F422BD11500103D2D09AC467B
:103DE0002F013F1825681D6065685D60A5689D60AE
:103DF000E5681034DD601D001033BD42F2D1654628
:103E00000F230C2401352D01491913404519144283
:103E100011D08C59AC5104369C1B032CF9D8043BAF
:103E20009B0801339B00ED18C91803231A40BFE714
:103E30000500561EBFE71A00BAE7C046F0B5830773
:103E400047D0541E002A43D003000325CEB201E020
:103E5000013C3DD301335A1E16702B42F8D1032C7E
:103E60002FD9FF220A40150215432A0415430F2CAF
:103E700032D92700103F3F093E01B4461E001A0008
:103E800010366644156055609560D5601032B242B8
:103E9000F8D101373F010C22DB190F2722402740C0
:103EA0003C0072B13E1FB608B400A4461A001C1DA7
:103EB000644420C2A242FCD103240136B6009B19FF
:103EC0003C402CB1C9B21C19197001339C42FBD182
:103ED000F0BD03001400C2E72700E3E7F0B5D646C3
:103EE0004F464646C0B540F25046C2F2000682B088
:103EF0000700306892469946884600F077F844F209
:103F00001420C0F600000368019340F24813019AA0
:103F1000D5586DB36C681F2C2FDC7FB9631C6B60A8
:103F200043460234A4003068635100F061F8002079
:103F300002B0E0BCBA46B146A846F0BD8822514660
:103F40002800A300EB189950873AA2408930FF302F
:103F500001681143016040F2081148465850022F91
:103F6000DCD12B008D33FF3319680A431A60D5E783
:103F700015004D35FF35D550CCE7306800F038F8E6
:103F800001204042D4E7C04640F20003C0F20003E3
:103F900010B52BB143F6B570C0F6000000F002F882
:103FA00010BDC04610B50100002300220020FFF71D
:103FB00095FF10BD44F22C2310B544F23024C0F616
:103FC0000003C0F60004E41AA4105CB144F22C22F1
:103FD000C0F600029446013CA30063441B68984766
:103FE000002CF3D100F00CF810BDC0467047C0465D
:103FF0007047C046F8B5C046F8BC08BC9E4670473E
:0C400000F8B5C046F8BC08BC9E467047EE
:10400C00000000000000000001020304060708097C
:10401C000000000001020304323533647300000019
:10402C00756E646572000000940600082006000896
:10403C00820500083C050008820500085C060008A3
:10404C00820500083C050008200600082006000830
:10405C005C0600083C050008420500084205000803
:10406C00420500086A060008200600082006000821
:10407C008205000838050008820500085C06000867
:10408C0082050008380500082006000820060008F4
:10409C005C060008380500084205000842050008C7
:1040AC004205000866060008380A0008240A0008C1
:1040BC00020A00082E0A0008020A0008460D000831
:1040CC00020A00082E0A0008240A0008240A000824
:1040DC00460D00082E0A0008EE090008EE0900083B
:1040EC00EE090008C40D00083C2000083A20000826
:1040FC00402000084420000848200008DE2000086A
:10410C00E6270008D2270008E8270008E627000861
:10411C00FE270008E6270008E6270008E627000827
:10412C0014280008E6270008E6270008E627000800
:10413C00E6270008E6270008E6270008E62700081F
:10414C002A280008E6270008E6270008E6270008CA
:10415C00E6270008E6270008E6270008E6270008FF
:10416C00E6270008E6270008E6270008E6270008EF
:10417C00E6270008E6270008E6270008E6270008DF
:10418C00402800088E2900088E290008002A000803
:10419C008E290008E82900088E2900088E290008BD
:1041AC008E290008EC2900088E2900088E290008A9
:1041BC008E2900088E2900088E2900088E290008F7
:1041CC008E290008F02900088E2900088E29000885
:1041DC008E2900088E2900088E2900088E290008D7
:1041EC008E2900088E2900088E2900088E290008C7
:1041FC008E2900088E2900088E2900088E290008B7
:0C420C008E290008F4290008280000207A
:08421800B8FAFF7F010000006D
:0C422000893F0008FD000008793C000800
:04422C00D1000008B5
:104230000000000000A24A0400000000000000008E
:10424000000000000000000000000000000000006E
:104250000000000000000A0000000000140300201D
:104260007C030020E40300200000000000000000A8
:10427000000000000000000000000000000000003E
:10428000000000000000000000000000000000002E
:10429000000000000000000000000000000000001E
:1042A000000000000000000000000000000000000E
:1042B00000000000000000000000000000000000FE
:1042C00000000000000000000000000000000000EE
:1042D00000000000000000000000000000000000DE
:1042E00000000000000000000000000000000000CE
:1042F00000000000000000000000000000000000BE
:1043000001000000000000000E33CDAB34126DE65A
:10431000ECDE05000B0000000000000000000000C3
:10432000000000000000000000000000000000008D
:10433000000000000000000000000000000000007D
:10434000000000000000000000000000000000006D
:10435000000000000000000000000000000000005D
:04468000B005002061
:0400000508003C892A
:00000001FF
